{
  "transactions": [
    {
      "hash": "0x4e40c8dd7380698f67673c7ddcdf75d8caa3c60e6cb928795727ee71dbab3bf5",
      "transactionType": "CALL",
      "contractName": null,
      "contractAddress": "0xe92244e3368561faf21648146511dede3a475eb5",
      "function": "setPriceFeed(address,address)",
      "arguments": [
        "0x0000000000000000000000000000000000000000",
        "0x4aDC67696bA383F43DD60A9e78F2C97Fbbfc7cb1"
      ],
      "transaction": {
        "from": "0xa121e1ef31bbf0826aa67dc01e7977e80af58d73",
        "to": "0xe92244e3368561faf21648146511dede3a475eb5",
        "gas": "0x130d0",
        "value": "0x0",
        "input": "0x76e1128600000000000000000000000000000000000000000000000000000000000000000000000000000000000000004adc67696ba383f43dd60a9e78f2c97fbbfc7cb1",
        "nonce": "0x73",
        "chainId": "0x14a34"
      },
      "additionalContracts": [],
      "isFixedGasLimit": false
    },
    {
      "hash": "0xabd48da1997d1fe48f87147497cbd38bc76294a3d038bcafd1ba4b5bba34e0fd",
      "transactionType": "CALL",
      "contractName": null,
      "contractAddress": "0xe92244e3368561faf21648146511dede3a475eb5",
      "function": "registerMerchant(address,address,uint16,bytes32)",
      "arguments": [
        "0xA121e1eF31BbF0826aa67dc01e7977e80Af58D73",
        "0x0000000000000000000000000000000000000000",
        "0",
        "0x637a75d70eb0ca9c8dca96446dbf51a0a07093f7f335d281eccf1754635653de"
      ],
      "transaction": {
        "from": "0xa121e1ef31bbf0826aa67dc01e7977e80af58d73",
        "to": "0xe92244e3368561faf21648146511dede3a475eb5",
        "gas": "0x2a96b",
        "value": "0x0",
        "input": "0x132a059c000000000000000000000000a121e1ef31bbf0826aa67dc01e7977e80af58d7300000000000000000000000000000000000000000000000000000000000000000000000000000000000000000000000000000000000000000000000000000000637a75d70eb0ca9c8dca96446dbf51a0a07093f7f335d281eccf1754635653de",
        "nonce": "0x74",
        "chainId": "0x14a34"
      },
      "additionalContracts": [],
      "isFixedGasLimit": false
    },
    {
      "hash": "0x634eb3d492797532e98983b56f4fc5d97f0f7682dbb94d0f59ce7add28dd9979",
      "transactionType": "CALL",
      "contractName": null,
      "contractAddress": "0xe92244e3368561faf21648146511dede3a475eb5",
      "function": "payNative(uint256,uint256,bytes32)",
      "arguments": [
        "2",
        "100000000",
        "0x9a5d4e8cd885ffcab403ab251ead1d5ba4ec8cfe9ff4e9667faf2e6c3d7ffbec"
      ],
      "transaction": {
        "from": "0xa121e1ef31bbf0826aa67dc01e7977e80af58d73",
        "to": "0xe92244e3368561faf21648146511dede3a475eb5",
        "gas": "0x1e375",
        "value": "0x20bc11c7d99c1",
        "input": "0x8589fa0f00000000000000000000000000000000000000000000000000000000000000020000000000000000000000000000000000000000000000000000000005f5e1009a5d4e8cd885ffcab403ab251ead1d5ba4ec8cfe9ff4e9667faf2e6c3d7ffbec",
        "nonce": "0x75",
        "chainId": "0x14a34"
      },
      "additionalContracts": [],
      "isFixedGasLimit": false
    }
  ],
  "receipts": [
    {
      "status": "0x1",
      "cumulativeGasUsed": "0x21a0c5",
      "logs": [
        {
          "address": "0xe92244e3368561faf21648146511dede3a475eb5",
          "topics": [
            "0xd2d8394cf7549a5ddbc2ba3dd7b2de8d53c891472d1f2907008ed6a10045fdae",
            "0x0000000000000000000000000000000000000000000000000000000000000000"
          ],
          "data": "0x0000000000000000000000004adc67696ba383f43dd60a9e78f2c97fbbfc7cb1",
          "blockHash": "0xbeef001e8c4a954b2d33329a12305f9c92504ff79081713799ef1c24cb071a7d",
          "blockNumber": "0x29dc97e",
          "blockTimestamp": "0x6a4ef1dc",
          "transactionHash": "0xabd48da1997d1fe48f87147497cbd38bc76294a3d038bcafd1ba4b5bba34e0fd",
          "transactionIndex": "0xa",
          "logIndex": "0x31",
          "removed": false
        },
        {
          "address": "0xe92244e3368561faf21648146511dede3a475eb5",
          "topics": [
            "0xb7f3f4e76113c4e03f2a107419d0adcf3a95764e98cfe5387cd35e448971649a",
            "0x0000000000000000000000000000000000000000000000000000000000000000"
          ],
          "data": "0x0000000000000000000000000000000000000000000000000000000000000000",
          "blockHash": "0xbeef001e8c4a954b2d33329a12305f9c92504ff79081713799ef1c24cb071a7d",
          "blockNumber": "0x29dc97e",
          "blockTimestamp": "0x6a4ef1dc",
          "transactionHash": "0xabd48da1997d1fe48f87147497cbd38bc76294a3d038bcafd1ba4b5bba34e0fd",
          "transactionIndex": "0xa",
          "logIndex": "0x32",
          "removed": false
        }
      ],
      "logsBloom": "0x00000000000000000000000000000000000000000080000000000000000000000000000000000008000000000000000000000000000000000010000000000000100000000000000000000000000000000000000000000000000000000000000000000000020000000000000000000800000000000000000000100000000000000000000000000000000000000000000000000000000000000000000000000000000000000000000020000000000000000000000000000000000000000000000000000000000000000000000000000000000010000000000000000000000020000000000000000000000400000000000000000000000000000000000000000020",
      "type": "0x2",
      "transactionHash": "0xabd48da1997d1fe48f87147497cbd38bc76294a3d038bcafd1ba4b5bba34e0fd",
      "transactionIndex": "0xa",
      "blockHash": "0xbeef001e8c4a954b2d33329a12305f9c92504ff79081713799ef1c24cb071a7d",
      "blockNumber": "0x29dc97e",
      "gasUsed": "0xdcaf",
      "effectiveGasPrice": "0x5b8d80",
      "blobGasUsed": "0xae38",
      "from": "0xa121e1ef31bbf0826aa67dc01e7977e80af58d73",
      "to": "0xe92244e3368561faf21648146511dede3a475eb5",
      "contractAddress": null,
      "daFootprintGasScalar": "0x1be",
      "l1BaseFeeScalar": "0x44d",
      "l1BlobBaseFee": "0x390dcb6",
      "l1BlobBaseFeeScalar": "0xa118b",
      "l1Fee": "0x153e58ff1",
      "l1GasPrice": "0x3b611a33",
      "l1GasUsed": "0x640"
    },
    {
      "status": "0x1",
      "cumulativeGasUsed": "0x238e1b",
      "logs": [
        {
          "address": "0xe92244e3368561faf21648146511dede3a475eb5",
          "topics": [
            "0xb2f2bd3ca7855d65dec4248643b722cee4f4bb412df450060f8b1d0504ce9ddf",
            "0x0000000000000000000000000000000000000000000000000000000000000002",
            "0x000000000000000000000000a121e1ef31bbf0826aa67dc01e7977e80af58d73"
          ],
          "data": "0x000000000000000000000000a121e1ef31bbf0826aa67dc01e7977e80af58d7300000000000000000000000000000000000000000000000000000000000000000000000000000000000000000000000000000000000000000000000000000000637a75d70eb0ca9c8dca96446dbf51a0a07093f7f335d281eccf1754635653de",
          "blockHash": "0xbeef001e8c4a954b2d33329a12305f9c92504ff79081713799ef1c24cb071a7d",
          "blockNumber": "0x29dc97e",
          "blockTimestamp": "0x6a4ef1dc",
          "transactionHash": "0x4e40c8dd7380698f67673c7ddcdf75d8caa3c60e6cb928795727ee71dbab3bf5",
          "transactionIndex": "0xb",
          "logIndex": "0x33",
          "removed": false
        }
      ],
      "logsBloom": "0x04000000000000000000000000000000000000000000020000000000000000000000000000000000000000000080000000000000000000000010000000000000000000000000000000000000000000000000000000000000000000000008000000000000000000000002000000000000000000000000000000000000000000000000000000000000000000000000000000000000000000000000000000000400000000000000000020000100000000000000000000000000000000000000000000000000000000000000000000000000000000000000000000000000000000000000000000000000000000000000000000000010008000000000000000000020",
      "type": "0x2",
      "transactionHash": "0x4e40c8dd7380698f67673c7ddcdf75d8caa3c60e6cb928795727ee71dbab3bf5",
      "transactionIndex": "0xb",
      "blockHash": "0xbeef001e8c4a954b2d33329a12305f9c92504ff79081713799ef1c24cb071a7d",
      "blockNumber": "0x29dc97e",
      "gasUsed": "0x1ed56",
      "effectiveGasPrice": "0x5b8d80",
      "blobGasUsed": "0xc320",
      "from": "0xa121e1ef31bbf0826aa67dc01e7977e80af58d73",
      "to": "0xe92244e3368561faf21648146511dede3a475eb5",
      "contractAddress": null,
      "daFootprintGasScalar": "0x1be",
      "l1BaseFeeScalar": "0x44d",
      "l1BlobBaseFee": "0x390dcb6",
      "l1BlobBaseFeeScalar": "0xa118b",
      "l1Fee": "0x17d406a56",
      "l1GasPrice": "0x3b611a33",
      "l1GasUsed": "0x702"
    },
    {
      "status": "0x1",
      "cumulativeGasUsed": "0x24d8ad",
      "logs": [
        {
          "address": "0xe92244e3368561faf21648146511dede3a475eb5",
          "topics": [
            "0x0e7e4f9badfadd9437d5fe53bdba0ca985b1b3414cb35b09a4459416e1735eea",
            "0x0000000000000000000000000000000000000000000000000000000000000002",
            "0x000000000000000000000000a121e1ef31bbf0826aa67dc01e7977e80af58d73",
            "0x0000000000000000000000000000000000000000000000000000000000000000"
          ],
          "data": "0x00000000000000000000000000000000000000000000000000020bc11c7d99c10000000000000000000000000000000000000000000000000000053ccfa51893000000000000000000000000000000000000000000000000000206844cd8812e0000000000000000000000000000000000000000000000000000000005f5e1009a5d4e8cd885ffcab403ab251ead1d5ba4ec8cfe9ff4e9667faf2e6c3d7ffbec0000000000000000000000000000000000000000000000000000000000000000",
          "blockHash": "0xbeef001e8c4a954b2d33329a12305f9c92504ff79081713799ef1c24cb071a7d",
          "blockNumber": "0x29dc97e",
          "blockTimestamp": "0x6a4ef1dc",
          "transactionHash": "0x634eb3d492797532e98983b56f4fc5d97f0f7682dbb94d0f59ce7add28dd9979",
          "transactionIndex": "0xc",
          "logIndex": "0x34",
          "removed": false
        }
      ],
      "logsBloom": "0x04000000000000000000000000000000000000000000000000000000000000000000000000000000000000000080000000000000000000000010000000000000000000000000000080000000000001000000000000000000000000000008000000000000028000000000000000000800000000000000000000000000000000000000000000000000000000000000000000000000000000000000000000000000000000000000000020000100000000000000000000000000000000000000000000000000000000000000000000000000000000000000000000000000000020000000000000000000000000000000000000000010008000000000000000000020",
      "type": "0x2",
      "transactionHash": "0x634eb3d492797532e98983b56f4fc5d97f0f7682dbb94d0f59ce7add28dd9979",
      "transactionIndex": "0xc",
      "blockHash": "0xbeef001e8c4a954b2d33329a12305f9c92504ff79081713799ef1c24cb071a7d",
      "blockNumber": "0x29dc97e",
      "gasUsed": "0x14a92",
      "effectiveGasPrice": "0x5b8d80",
      "blobGasUsed": "0xb1b4",
      "from": "0xa121e1ef31bbf0826aa67dc01e7977e80af58d73",
      "to": "0xe92244e3368561faf21648146511dede3a475eb5",
      "contractAddress": null,
      "daFootprintGasScalar": "0x1be",
      "l1BaseFeeScalar": "0x44d",
      "l1BlobBaseFee": "0x390dcb6",
      "l1BlobBaseFeeScalar": "0xa118b",
      "l1Fee": "0x15df9dcc9",
      "l1GasPrice": "0x3b611a33",
      "l1GasUsed": "0x66f"
    }
  ],
  "libraries": [],
  "pending": [],
  "returns": {},
  "timestamp": 1783558620749,
  "chain": 84532,
  "commit": "8a237db"
}