{
  "transactions": [
    {
      "hash": "0xc5bd927d795ae201baf089070e154b549bdb3eb3c28ff7b5a7a1f02dac92d91a",
      "transactionType": "CALL",
      "contractName": null,
      "contractAddress": "0xe92244e3368561faf21648146511dede3a475eb5",
      "function": "registerMerchant(address,address,uint16,bytes32)",
      "arguments": [
        "0xA121e1eF31BbF0826aa67dc01e7977e80Af58D73",
        "0x0000000000000000000000000000000000000000",
        "0",
        "0x8fabfb1f0d26c8ada67b04a09aacb5adee297c913b3527991da6d2d9fb0822f5"
      ],
      "transaction": {
        "from": "0xa121e1ef31bbf0826aa67dc01e7977e80af58d73",
        "to": "0xe92244e3368561faf21648146511dede3a475eb5",
        "gas": "0x2a96b",
        "value": "0x0",
        "input": "0x132a059c000000000000000000000000a121e1ef31bbf0826aa67dc01e7977e80af58d73000000000000000000000000000000000000000000000000000000000000000000000000000000000000000000000000000000000000000000000000000000008fabfb1f0d26c8ada67b04a09aacb5adee297c913b3527991da6d2d9fb0822f5",
        "nonce": "0x6f",
        "chainId": "0x14a34"
      },
      "additionalContracts": [],
      "isFixedGasLimit": false
    },
    {
      "hash": "0x4a9667b09082d0e6e76528c17420e7a1856aaab57d240a052f65816fb10649d8",
      "transactionType": "CALL",
      "contractName": null,
      "contractAddress": "0xf1038d9fd72cff882fe35955a7fdcf1c299623bf",
      "function": "createPromo(uint256,address,uint64,uint64,uint16,uint256)",
      "arguments": [
        "1",
        "0x036CbD53842c5426634e7929541eC2318f3dCF7e",
        "1783549982",
        "1786141982",
        "500",
        "500000000"
      ],
      "transaction": {
        "from": "0xa121e1ef31bbf0826aa67dc01e7977e80af58d73",
        "to": "0xf1038d9fd72cff882fe35955a7fdcf1c299623bf",
        "gas": "0x280e3",
        "value": "0x0",
        "input": "0xc83f587e0000000000000000000000000000000000000000000000000000000000000001000000000000000000000000036cbd53842c5426634e7929541ec2318f3dcf7e000000000000000000000000000000000000000000000000000000006a4ed01e000000000000000000000000000000000000000000000000000000006a765d1e00000000000000000000000000000000000000000000000000000000000001f4000000000000000000000000000000000000000000000000000000001dcd6500",
        "nonce": "0x70",
        "chainId": "0x14a34"
      },
      "additionalContracts": [],
      "isFixedGasLimit": false
    },
    {
      "hash": "0x38ff3bd4ce70ac914a022dd772e4aeb87f88a219179e4477dab6d31449c9f5b5",
      "transactionType": "CALL",
      "contractName": null,
      "contractAddress": "0x036cbd53842c5426634e7929541ec2318f3dcf7e",
      "function": "approve(address,uint256)",
      "arguments": [
        "0xf1038D9fD72CFF882fE35955a7FdCF1C299623bF",
        "10000000"
      ],
      "transaction": {
        "from": "0xa121e1ef31bbf0826aa67dc01e7977e80af58d73",
        "to": "0x036cbd53842c5426634e7929541ec2318f3dcf7e",
        "gas": "0x12b1b",
        "value": "0x0",
        "input": "0x095ea7b3000000000000000000000000f1038d9fd72cff882fe35955a7fdcf1c299623bf0000000000000000000000000000000000000000000000000000000000989680",
        "nonce": "0x71",
        "chainId": "0x14a34"
      },
      "additionalContracts": [],
      "isFixedGasLimit": false
    },
    {
      "hash": "0x5f686cea9e6913677e9445a47b532b02d9305207e2185306b41610fc9cff5634",
      "transactionType": "CALL",
      "contractName": null,
      "contractAddress": "0xf1038d9fd72cff882fe35955a7fdcf1c299623bf",
      "function": "fundPromo(uint256,uint256)",
      "arguments": [
        "1",
        "10000000"
      ],
      "transaction": {
        "from": "0xa121e1ef31bbf0826aa67dc01e7977e80af58d73",
        "to": "0xf1038d9fd72cff882fe35955a7fdcf1c299623bf",
        "gas": "0x21328",
        "value": "0x0",
        "input": "0x34e8cbce00000000000000000000000000000000000000000000000000000000000000010000000000000000000000000000000000000000000000000000000000989680",
        "nonce": "0x72",
        "chainId": "0x14a34"
      },
      "additionalContracts": [],
      "isFixedGasLimit": false
    }
  ],
  "receipts": [
    {
      "status": "0x1",
      "cumulativeGasUsed": "0xc161b",
      "logs": [
        {
          "address": "0xe92244e3368561faf21648146511dede3a475eb5",
          "topics": [
            "0xb2f2bd3ca7855d65dec4248643b722cee4f4bb412df450060f8b1d0504ce9ddf",
            "0x0000000000000000000000000000000000000000000000000000000000000001",
            "0x000000000000000000000000a121e1ef31bbf0826aa67dc01e7977e80af58d73"
          ],
          "data": "0x000000000000000000000000a121e1ef31bbf0826aa67dc01e7977e80af58d73000000000000000000000000000000000000000000000000000000000000000000000000000000000000000000000000000000000000000000000000000000008fabfb1f0d26c8ada67b04a09aacb5adee297c913b3527991da6d2d9fb0822f5",
          "blockHash": "0xebb681de980d007180d4c4b9ce8dff26fbd1b7024543e46947e5c824dd8a732e",
          "blockNumber": "0x29db8a5",
          "blockTimestamp": "0x6a4ed02a",
          "transactionHash": "0xc5bd927d795ae201baf089070e154b549bdb3eb3c28ff7b5a7a1f02dac92d91a",
          "transactionIndex": "0x3",
          "logIndex": "0xd",
          "removed": false
        }
      ],
      "logsBloom": "0x00000000000000000000000000000000000000000000020000000000000000000000000000000000000000000080000000000000000000000010000000040000000000000000000000000000000000000000000000040000000000000008000000000000000000000002000000000000000000000000000000000000000000000000000000000000000000000000000000000000000000000000000000000400000000000000000020000000000000000000000000000000000000000000000000000000000000000000000000000000000000000000000000000000000040000000000000000000000000000000000000000010000000000000000000000020",
      "type": "0x2",
      "transactionHash": "0xc5bd927d795ae201baf089070e154b549bdb3eb3c28ff7b5a7a1f02dac92d91a",
      "transactionIndex": "0x3",
      "blockHash": "0xebb681de980d007180d4c4b9ce8dff26fbd1b7024543e46947e5c824dd8a732e",
      "blockNumber": "0x29db8a5",
      "gasUsed": "0x1ed56",
      "effectiveGasPrice": "0x5fc3a0",
      "blobGasUsed": "0xc320",
      "from": "0xa121e1ef31bbf0826aa67dc01e7977e80af58d73",
      "to": "0xe92244e3368561faf21648146511dede3a475eb5",
      "contractAddress": null,
      "daFootprintGasScalar": "0x1be",
      "l1BaseFeeScalar": "0x44d",
      "l1BlobBaseFee": "0x386b187",
      "l1BlobBaseFeeScalar": "0xa118b",
      "l1Fee": "0x185d1a799",
      "l1GasPrice": "0x4133f907",
      "l1GasUsed": "0x702"
    },
    {
      "status": "0x1",
      "cumulativeGasUsed": "0xde61a",
      "logs": [
        {
          "address": "0xf1038d9fd72cff882fe35955a7fdcf1c299623bf",
          "topics": [
            "0xf962ea6852b2a95f92d5a33cdb14021b1b758650612467c87f3707f677d064f9",
            "0x0000000000000000000000000000000000000000000000000000000000000001",
            "0x000000000000000000000000036cbd53842c5426634e7929541ec2318f3dcf7e"
          ],
          "data": "0x000000000000000000000000000000000000000000000000000000006a4ed01e000000000000000000000000000000000000000000000000000000006a765d1e00000000000000000000000000000000000000000000000000000000000001f4000000000000000000000000000000000000000000000000000000001dcd6500",
          "blockHash": "0xebb681de980d007180d4c4b9ce8dff26fbd1b7024543e46947e5c824dd8a732e",
          "blockNumber": "0x29db8a5",
          "blockTimestamp": "0x6a4ed02a",
          "transactionHash": "0x38ff3bd4ce70ac914a022dd772e4aeb87f88a219179e4477dab6d31449c9f5b5",
          "transactionIndex": "0x4",
          "logIndex": "0xe",
          "removed": false
        }
      ],
      "logsBloom": "0x00000000000000000000000000000000000000000000000000000000000000000000000000000000000000000000000010000000000000000000000000040002000000000000000000000000000000000000000020040000000000000000000000000000000000000000000000000000000000000000000020000000000000000000000040000000000000000000000000000000000000000000000000000000000000000000000000000000000000000000000000000000100000000000000000000000000000000000000000000000000000000000000000000000000040000000000001000000000040000040000000000000000000000000000000000000",
      "type": "0x2",
      "transactionHash": "0x38ff3bd4ce70ac914a022dd772e4aeb87f88a219179e4477dab6d31449c9f5b5",
      "transactionIndex": "0x4",
      "blockHash": "0xebb681de980d007180d4c4b9ce8dff26fbd1b7024543e46947e5c824dd8a732e",
      "blockNumber": "0x29db8a5",
      "gasUsed": "0x1cfff",
      "effectiveGasPrice": "0x5fc3a0",
      "blobGasUsed": "0xc320",
      "from": "0xa121e1ef31bbf0826aa67dc01e7977e80af58d73",
      "to": "0xf1038d9fd72cff882fe35955a7fdcf1c299623bf",
      "contractAddress": null,
      "daFootprintGasScalar": "0x1be",
      "l1BaseFeeScalar": "0x44d",
      "l1BlobBaseFee": "0x386b187",
      "l1BlobBaseFeeScalar": "0xa118b",
      "l1Fee": "0x185d1a799",
      "l1GasPrice": "0x4133f907",
      "l1GasUsed": "0x702"
    },
    {
      "status": "0x1",
      "cumulativeGasUsed": "0xebea7",
      "logs": [
        {
          "address": "0x036cbd53842c5426634e7929541ec2318f3dcf7e",
          "topics": [
            "0x8c5be1e5ebec7d5bd14f71427d1e84f3dd0314c0f7b2291e5b200ac8c7c3b925",
            "0x000000000000000000000000a121e1ef31bbf0826aa67dc01e7977e80af58d73",
            "0x000000000000000000000000f1038d9fd72cff882fe35955a7fdcf1c299623bf"
          ],
          "data": "0x0000000000000000000000000000000000000000000000000000000000989680",
          "blockHash": "0xebb681de980d007180d4c4b9ce8dff26fbd1b7024543e46947e5c824dd8a732e",
          "blockNumber": "0x29db8a5",
          "blockTimestamp": "0x6a4ed02a",
          "transactionHash": "0x4a9667b09082d0e6e76528c17420e7a1856aaab57d240a052f65816fb10649d8",
          "transactionIndex": "0x5",
          "logIndex": "0xf",
          "removed": false
        }
      ],
      "logsBloom": "0x00000000040000000000000000000000000000000000000000000000000000000000000000000000000100080080000000000000000000000000000000200000000000000000000000000000000000000000000000000000000000000008000800000000000000000000000000000000000000000000000000000000000000000000000000000000000000000000000000000000000000000000000000000000020000000000000000000000000000000000000000000000000000000000000000000000000000000000000020000000000000000000000000000000000000000010000000000000000000000020000000000010000000000000000000000000",
      "type": "0x2",
      "transactionHash": "0x4a9667b09082d0e6e76528c17420e7a1856aaab57d240a052f65816fb10649d8",
      "transactionIndex": "0x5",
      "blockHash": "0xebb681de980d007180d4c4b9ce8dff26fbd1b7024543e46947e5c824dd8a732e",
      "blockNumber": "0x29db8a5",
      "gasUsed": "0xd88d",
      "effectiveGasPrice": "0x5fc3a0",
      "blobGasUsed": "0xae38",
      "from": "0xa121e1ef31bbf0826aa67dc01e7977e80af58d73",
      "to": "0x036cbd53842c5426634e7929541ec2318f3dcf7e",
      "contractAddress": null,
      "daFootprintGasScalar": "0x1be",
      "l1BaseFeeScalar": "0x44d",
      "l1BlobBaseFee": "0x386b187",
      "l1BlobBaseFeeScalar": "0xa118b",
      "l1Fee": "0x15b88e5d9",
      "l1GasPrice": "0x4133f907",
      "l1GasUsed": "0x640"
    },
    {
      "status": "0x1",
      "cumulativeGasUsed": "0x103f34",
      "logs": [
        {
          "address": "0x036cbd53842c5426634e7929541ec2318f3dcf7e",
          "topics": [
            "0xddf252ad1be2c89b69c2b068fc378daa952ba7f163c4a11628f55a4df523b3ef",
            "0x000000000000000000000000a121e1ef31bbf0826aa67dc01e7977e80af58d73",
            "0x000000000000000000000000f1038d9fd72cff882fe35955a7fdcf1c299623bf"
          ],
          "data": "0x0000000000000000000000000000000000000000000000000000000000989680",
          "blockHash": "0xebb681de980d007180d4c4b9ce8dff26fbd1b7024543e46947e5c824dd8a732e",
          "blockNumber": "0x29db8a5",
          "blockTimestamp": "0x6a4ed02a",
          "transactionHash": "0x5f686cea9e6913677e9445a47b532b02d9305207e2185306b41610fc9cff5634",
          "transactionIndex": "0x6",
          "logIndex": "0x10",
          "removed": false
        },
        {
          "address": "0xf1038d9fd72cff882fe35955a7fdcf1c299623bf",
          "topics": [
            "0xfdf6dbabd691ee953806d9bf55fe4a5eaa61a746b03d4bf200e0f84f7a3e2c94",
            "0x0000000000000000000000000000000000000000000000000000000000000001",
            "0x000000000000000000000000a121e1ef31bbf0826aa67dc01e7977e80af58d73"
          ],
          "data": "0x00000000000000000000000000000000000000000000000000000000009896800000000000000000000000000000000000000000000000000000000000989680",
          "blockHash": "0xebb681de980d007180d4c4b9ce8dff26fbd1b7024543e46947e5c824dd8a732e",
          "blockNumber": "0x29db8a5",
          "blockTimestamp": "0x6a4ed02a",
          "transactionHash": "0x5f686cea9e6913677e9445a47b532b02d9305207e2185306b41610fc9cff5634",
          "transactionIndex": "0x6",
          "logIndex": "0x11",
          "removed": false
        }
      ],
      "logsBloom": "0x00000000040000000000000000000000000000000000000000000000000000200000000000000000000100080080000010000000000000000000000000040000000000000000000000000008000000000000000020040000000000000008000800000000000000000000000000000000000000000000000000000010000000000000000000000000000000000000000000000000000000000000000000000000000000000000000000000000000000000000000000000000000000000000000000000002000000202000000020000000000000000000000000000000000040000000000001000000000000000020000000000010000000000000000000000000",
      "type": "0x2",
      "transactionHash": "0x5f686cea9e6913677e9445a47b532b02d9305207e2185306b41610fc9cff5634",
      "transactionIndex": "0x6",
      "blockHash": "0xebb681de980d007180d4c4b9ce8dff26fbd1b7024543e46947e5c824dd8a732e",
      "blockNumber": "0x29db8a5",
      "gasUsed": "0x1808d",
      "effectiveGasPrice": "0x5fc3a0",
      "blobGasUsed": "0xae38",
      "from": "0xa121e1ef31bbf0826aa67dc01e7977e80af58d73",
      "to": "0xf1038d9fd72cff882fe35955a7fdcf1c299623bf",
      "contractAddress": null,
      "daFootprintGasScalar": "0x1be",
      "l1BaseFeeScalar": "0x44d",
      "l1BlobBaseFee": "0x386b187",
      "l1BlobBaseFeeScalar": "0xa118b",
      "l1Fee": "0x15b88e5d9",
      "l1GasPrice": "0x4133f907",
      "l1GasUsed": "0x640"
    }
  ],
  "libraries": [],
  "pending": [],
  "returns": {
    "merchantId": {
      "internal_type": "uint256",
      "value": "1"
    }
  },
  "timestamp": 1783549995233,
  "chain": 84532,
  "commit": "2a5636e"
}