{
  "transactions": [
    {
      "hash": "0x38693633022fcd1da39fa082e8ed4b757ee293caf56ff66bb1aa321ab15bd93e",
      "transactionType": "CREATE",
      "contractName": "MockV3Aggregator",
      "contractAddress": "0xdea2b9d695f92ffea246ff0a01bdcb1ff37d86b3",
      "function": null,
      "arguments": [
        "8",
        "100000000"
      ],
      "transaction": {
        "from": "0xa121e1ef31bbf0826aa67dc01e7977e80af58d73",
        "gas": "0x6990e",
        "value": "0x0",
        "input": "0x60a0346100ca57601f6103e038819003918201601f19168301916001600160401b038311848410176100ce5780849260409485528339810103126100ca5780519060ff821682036100ca57602001516080919091525f54906001600160501b038083166001019081116100b6576001600160501b03166001600160501b031992831681175f55600191909155426002819055600355600480549092161790556040516102fd90816100e38239608051816102560152f35b634e487b7160e01b5f52601160045260245ffd5b5f80fd5b634e487b7160e01b5f52604160045260245ffdfe6080806040526004361015610012575f80fd5b5f3560e01c9081631c12940a1461027a578163313ce5671461023f5750806354fd4d50146102255780637284e416146101985780639a6fc8f514610157578063a87a20ce146100da5763feaf968c14610069575f80fd5b346100d6575f3660031901126100d6575f546001546002546003546004546100d2946001600160501b0390811694939291165b604080516001600160501b03968716815260208101959095528401929092526060830152909116608082015290819060a0820190565b0390f35b5f80fd5b346100d65760203660031901126100d6575f5460016001600160501b038216016001600160501b038111610143576001600160501b031680916001600160501b031916175f5560043560015542600255426003556001600160501b031960045416176004555f80f35b634e487b7160e01b5f52601160045260245ffd5b346100d65760203660031901126100d6576101706102e7565b505f546001546002546003546004546100d2946001600160501b03908116949392911661009c565b346100d6575f3660031901126100d6576040516040810181811067ffffffffffffffff8211176102115760405260108152604060208201916f26b7b1b5ab19a0b3b3b932b3b0ba37b960811b83528151928391602083525180918160208501528484015e5f828201840152601f01601f19168101030190f35b634e487b7160e01b5f52604160045260245ffd5b346100d6575f3660031901126100d65760206040515f8152f35b346100d6575f3660031901126100d65760209060ff7f0000000000000000000000000000000000000000000000000000000000000000168152f35b346100d65760a03660031901126100d6576102936102e7565b608435906001600160501b0382168092036100d6576001600160501b03166001600160501b03195f5416175f556024356001556044356002556064356003556001600160501b031960045416176004555f80f35b600435906001600160501b03821682036100d6575600000000000000000000000000000000000000000000000000000000000000080000000000000000000000000000000000000000000000000000000005f5e100",
        "nonce": "0x3c",
        "chainId": "0x4cef52"
      },
      "additionalContracts": [],
      "isFixedGasLimit": false
    },
    {
      "hash": "0x7cb90b539c8a4c3df456b17c05231b97a79897277e206d0e49bdaf65fb67b652",
      "transactionType": "CALL",
      "contractName": null,
      "contractAddress": "0xe92244e3368561faf21648146511dede3a475eb5",
      "function": "setPriceFeed(address,address)",
      "arguments": [
        "0x0000000000000000000000000000000000000000",
        "0xDea2B9d695F92Ffea246ff0A01BDCb1ff37D86B3"
      ],
      "transaction": {
        "from": "0xa121e1ef31bbf0826aa67dc01e7977e80af58d73",
        "to": "0xe92244e3368561faf21648146511dede3a475eb5",
        "gas": "0x130d0",
        "value": "0x0",
        "input": "0x76e112860000000000000000000000000000000000000000000000000000000000000000000000000000000000000000dea2b9d695f92ffea246ff0a01bdcb1ff37d86b3",
        "nonce": "0x3d",
        "chainId": "0x4cef52"
      },
      "additionalContracts": [],
      "isFixedGasLimit": false
    },
    {
      "hash": "0xd4b57f4050eb0bc412b177773e7ddd9b49774f4d0bb8e87f2e8f1aef44dba8e5",
      "transactionType": "CALL",
      "contractName": null,
      "contractAddress": "0xe92244e3368561faf21648146511dede3a475eb5",
      "function": "registerMerchant(address,address,uint16,bytes32)",
      "arguments": [
        "0xA121e1eF31BbF0826aa67dc01e7977e80Af58D73",
        "0x0000000000000000000000000000000000000000",
        "0",
        "0x637a75d70eb0ca9c8dca96446dbf51a0a07093f7f335d281eccf1754635653de"
      ],
      "transaction": {
        "from": "0xa121e1ef31bbf0826aa67dc01e7977e80af58d73",
        "to": "0xe92244e3368561faf21648146511dede3a475eb5",
        "gas": "0x2a96b",
        "value": "0x0",
        "input": "0x132a059c000000000000000000000000a121e1ef31bbf0826aa67dc01e7977e80af58d7300000000000000000000000000000000000000000000000000000000000000000000000000000000000000000000000000000000000000000000000000000000637a75d70eb0ca9c8dca96446dbf51a0a07093f7f335d281eccf1754635653de",
        "nonce": "0x3e",
        "chainId": "0x4cef52"
      },
      "additionalContracts": [],
      "isFixedGasLimit": false
    },
    {
      "hash": "0x69eddc4e6b7e7290c915279075adf56547692df93a77c32d1c716ef2a4a0e25b",
      "transactionType": "CALL",
      "contractName": null,
      "contractAddress": "0xe92244e3368561faf21648146511dede3a475eb5",
      "function": "payNative(uint256,uint256,bytes32)",
      "arguments": [
        "1",
        "100000000",
        "0x2e4862166638df671bdb64ebfb11c62842a657e03e2617163730245d813447c7"
      ],
      "transaction": {
        "from": "0xa121e1ef31bbf0826aa67dc01e7977e80af58d73",
        "to": "0xe92244e3368561faf21648146511dede3a475eb5",
        "gas": "0x1c30f",
        "value": "0xde0b6b3a7640000",
        "input": "0x8589fa0f00000000000000000000000000000000000000000000000000000000000000010000000000000000000000000000000000000000000000000000000005f5e1002e4862166638df671bdb64ebfb11c62842a657e03e2617163730245d813447c7",
        "nonce": "0x3f",
        "chainId": "0x4cef52"
      },
      "additionalContracts": [],
      "isFixedGasLimit": false
    }
  ],
  "receipts": [
    {
      "status": "0x1",
      "cumulativeGasUsed": "0x8d717",
      "logs": [],
      "logsBloom": "0x00000000000000000000000000000000000000000000000000000000000000000000000000000000000000000000000000000000000000000000000000000000000000000000000000000000000000000000000000000000000000000000000000000000000000000000000000000000000000000000000000000000000000000000000000000000000000000000000000000000000000000000000000000000000000000000000000000000000000000000000000000000000000000000000000000000000000000000000000000000000000000000000000000000000000000000000000000000000000000000000000000000000000000000000000000000",
      "type": "0x2",
      "transactionHash": "0x7cb90b539c8a4c3df456b17c05231b97a79897277e206d0e49bdaf65fb67b652",
      "transactionIndex": "0x2",
      "blockHash": "0x6d05c6a0522dce8e3b05b0a19f550e56bf1453cefa30540c8a6cc98177561bd9",
      "blockNumber": "0x307db13",
      "gasUsed": "0x51346",
      "effectiveGasPrice": "0x4e3b29200",
      "from": "0xa121e1ef31bbf0826aa67dc01e7977e80af58d73",
      "to": null,
      "contractAddress": "0xdea2b9d695f92ffea246ff0a01bdcb1ff37d86b3"
    },
    {
      "status": "0x1",
      "cumulativeGasUsed": "0x9b3c6",
      "logs": [
        {
          "address": "0xe92244e3368561faf21648146511dede3a475eb5",
          "topics": [
            "0xd2d8394cf7549a5ddbc2ba3dd7b2de8d53c891472d1f2907008ed6a10045fdae",
            "0x0000000000000000000000000000000000000000000000000000000000000000"
          ],
          "data": "0x000000000000000000000000dea2b9d695f92ffea246ff0a01bdcb1ff37d86b3",
          "blockHash": "0x6d05c6a0522dce8e3b05b0a19f550e56bf1453cefa30540c8a6cc98177561bd9",
          "blockNumber": "0x307db13",
          "blockTimestamp": "0x6a4ef1f3",
          "transactionHash": "0xd4b57f4050eb0bc412b177773e7ddd9b49774f4d0bb8e87f2e8f1aef44dba8e5",
          "transactionIndex": "0x3",
          "logIndex": "0x1",
          "removed": false
        },
        {
          "address": "0xe92244e3368561faf21648146511dede3a475eb5",
          "topics": [
            "0xb7f3f4e76113c4e03f2a107419d0adcf3a95764e98cfe5387cd35e448971649a",
            "0x0000000000000000000000000000000000000000000000000000000000000000"
          ],
          "data": "0x0000000000000000000000000000000000000000000000000000000000000000",
          "blockHash": "0x6d05c6a0522dce8e3b05b0a19f550e56bf1453cefa30540c8a6cc98177561bd9",
          "blockNumber": "0x307db13",
          "blockTimestamp": "0x6a4ef1f3",
          "transactionHash": "0xd4b57f4050eb0bc412b177773e7ddd9b49774f4d0bb8e87f2e8f1aef44dba8e5",
          "transactionIndex": "0x3",
          "logIndex": "0x2",
          "removed": false
        }
      ],
      "logsBloom": "0x00000000000000000000000000000000000000000080000000000000000000000000000000000008000000000000000000000000000000000010000000000000100000000000000000000000000000000000000000000000000000000000000000000000020000000000000000000800000000000000000000100000000000000000000000000000000000000000000000000000000000000000000000000000000000000000000020000000000000000000000000000000000000000000000000000000000000000000000000000000000010000000000000000000000020000000000000000000000400000000000000000000000000000000000000000020",
      "type": "0x2",
      "transactionHash": "0xd4b57f4050eb0bc412b177773e7ddd9b49774f4d0bb8e87f2e8f1aef44dba8e5",
      "transactionIndex": "0x3",
      "blockHash": "0x6d05c6a0522dce8e3b05b0a19f550e56bf1453cefa30540c8a6cc98177561bd9",
      "blockNumber": "0x307db13",
      "gasUsed": "0xdcaf",
      "effectiveGasPrice": "0x4e3b29200",
      "from": "0xa121e1ef31bbf0826aa67dc01e7977e80af58d73",
      "to": "0xe92244e3368561faf21648146511dede3a475eb5",
      "contractAddress": null
    },
    {
      "status": "0x1",
      "cumulativeGasUsed": "0xba11c",
      "logs": [
        {
          "address": "0xe92244e3368561faf21648146511dede3a475eb5",
          "topics": [
            "0xb2f2bd3ca7855d65dec4248643b722cee4f4bb412df450060f8b1d0504ce9ddf",
            "0x0000000000000000000000000000000000000000000000000000000000000001",
            "0x000000000000000000000000a121e1ef31bbf0826aa67dc01e7977e80af58d73"
          ],
          "data": "0x000000000000000000000000a121e1ef31bbf0826aa67dc01e7977e80af58d7300000000000000000000000000000000000000000000000000000000000000000000000000000000000000000000000000000000000000000000000000000000637a75d70eb0ca9c8dca96446dbf51a0a07093f7f335d281eccf1754635653de",
          "blockHash": "0x6d05c6a0522dce8e3b05b0a19f550e56bf1453cefa30540c8a6cc98177561bd9",
          "blockNumber": "0x307db13",
          "blockTimestamp": "0x6a4ef1f3",
          "transactionHash": "0x69eddc4e6b7e7290c915279075adf56547692df93a77c32d1c716ef2a4a0e25b",
          "transactionIndex": "0x4",
          "logIndex": "0x3",
          "removed": false
        }
      ],
      "logsBloom": "0x00000000000000000000000000000000000000000000020000000000000000000000000000000000000000000080000000000000000000000010000000040000000000000000000000000000000000000000000000040000000000000008000000000000000000000002000000000000000000000000000000000000000000000000000000000000000000000000000000000000000000000000000000000400000000000000000020000000000000000000000000000000000000000000000000000000000000000000000000000000000000000000000000000000000040000000000000000000000000000000000000000010000000000000000000000020",
      "type": "0x2",
      "transactionHash": "0x69eddc4e6b7e7290c915279075adf56547692df93a77c32d1c716ef2a4a0e25b",
      "transactionIndex": "0x4",
      "blockHash": "0x6d05c6a0522dce8e3b05b0a19f550e56bf1453cefa30540c8a6cc98177561bd9",
      "blockNumber": "0x307db13",
      "gasUsed": "0x1ed56",
      "effectiveGasPrice": "0x4e3b29200",
      "from": "0xa121e1ef31bbf0826aa67dc01e7977e80af58d73",
      "to": "0xe92244e3368561faf21648146511dede3a475eb5",
      "contractAddress": null
    },
    {
      "status": "0x1",
      "cumulativeGasUsed": "0xcd587",
      "logs": [
        {
          "address": "0xfffffffffffffffffffffffffffffffffffffffe",
          "topics": [
            "0xddf252ad1be2c89b69c2b068fc378daa952ba7f163c4a11628f55a4df523b3ef",
            "0x000000000000000000000000a121e1ef31bbf0826aa67dc01e7977e80af58d73",
            "0x000000000000000000000000e92244e3368561faf21648146511dede3a475eb5"
          ],
          "data": "0x0000000000000000000000000000000000000000000000000de0b6b3a7640000",
          "blockHash": "0x6d05c6a0522dce8e3b05b0a19f550e56bf1453cefa30540c8a6cc98177561bd9",
          "blockNumber": "0x307db13",
          "blockTimestamp": "0x6a4ef1f3",
          "transactionHash": "0x38693633022fcd1da39fa082e8ed4b757ee293caf56ff66bb1aa321ab15bd93e",
          "transactionIndex": "0x5",
          "logIndex": "0x4",
          "removed": false
        },
        {
          "address": "0xe92244e3368561faf21648146511dede3a475eb5",
          "topics": [
            "0x0e7e4f9badfadd9437d5fe53bdba0ca985b1b3414cb35b09a4459416e1735eea",
            "0x0000000000000000000000000000000000000000000000000000000000000001",
            "0x000000000000000000000000a121e1ef31bbf0826aa67dc01e7977e80af58d73",
            "0x0000000000000000000000000000000000000000000000000000000000000000"
          ],
          "data": "0x0000000000000000000000000000000000000000000000000de0b6b3a7640000000000000000000000000000000000000000000000000000002386f26fc100000000000000000000000000000000000000000000000000000dbd2fc137a300000000000000000000000000000000000000000000000000000000000005f5e1002e4862166638df671bdb64ebfb11c62842a657e03e2617163730245d813447c70000000000000000000000000000000000000000000000000000000000000000",
          "blockHash": "0x6d05c6a0522dce8e3b05b0a19f550e56bf1453cefa30540c8a6cc98177561bd9",
          "blockNumber": "0x307db13",
          "blockTimestamp": "0x6a4ef1f3",
          "transactionHash": "0x38693633022fcd1da39fa082e8ed4b757ee293caf56ff66bb1aa321ab15bd93e",
          "transactionIndex": "0x5",
          "logIndex": "0x5",
          "removed": false
        },
        {
          "address": "0xfffffffffffffffffffffffffffffffffffffffe",
          "topics": [
            "0xddf252ad1be2c89b69c2b068fc378daa952ba7f163c4a11628f55a4df523b3ef",
            "0x000000000000000000000000e92244e3368561faf21648146511dede3a475eb5",
            "0x000000000000000000000000a121e1ef31bbf0826aa67dc01e7977e80af58d73"
          ],
          "data": "0x0000000000000000000000000000000000000000000000000dbd2fc137a30000",
          "blockHash": "0x6d05c6a0522dce8e3b05b0a19f550e56bf1453cefa30540c8a6cc98177561bd9",
          "blockNumber": "0x307db13",
          "blockTimestamp": "0x6a4ef1f3",
          "transactionHash": "0x38693633022fcd1da39fa082e8ed4b757ee293caf56ff66bb1aa321ab15bd93e",
          "transactionIndex": "0x5",
          "logIndex": "0x6",
          "removed": false
        },
        {
          "address": "0xfffffffffffffffffffffffffffffffffffffffe",
          "topics": [
            "0xddf252ad1be2c89b69c2b068fc378daa952ba7f163c4a11628f55a4df523b3ef",
            "0x000000000000000000000000e92244e3368561faf21648146511dede3a475eb5",
            "0x000000000000000000000000a121e1ef31bbf0826aa67dc01e7977e80af58d73"
          ],
          "data": "0x000000000000000000000000000000000000000000000000002386f26fc10000",
          "blockHash": "0x6d05c6a0522dce8e3b05b0a19f550e56bf1453cefa30540c8a6cc98177561bd9",
          "blockNumber": "0x307db13",
          "blockTimestamp": "0x6a4ef1f3",
          "transactionHash": "0x38693633022fcd1da39fa082e8ed4b757ee293caf56ff66bb1aa321ab15bd93e",
          "transactionIndex": "0x5",
          "logIndex": "0x7",
          "removed": false
        }
      ],
      "logsBloom": "0x00000000000000000000000000000000000000000000000000000000000000000000000000000000000000000080000000000000000000000010000000040000000000000000000080000008000001000000000000040000000000000008000000000000028000002000000000000800000000000000000000800010000000010000000000000000000000000000004000000000000000000000000000000000000000000000000020000000000000000000000000000000000000000000000000000002000000000008000000000000000000000000000000000000000060400000000000000000000000000000000000000010000000000000000000000020",
      "type": "0x2",
      "transactionHash": "0x38693633022fcd1da39fa082e8ed4b757ee293caf56ff66bb1aa321ab15bd93e",
      "transactionIndex": "0x5",
      "blockHash": "0x6d05c6a0522dce8e3b05b0a19f550e56bf1453cefa30540c8a6cc98177561bd9",
      "blockNumber": "0x307db13",
      "gasUsed": "0x1346b",
      "effectiveGasPrice": "0x4e3b29200",
      "from": "0xa121e1ef31bbf0826aa67dc01e7977e80af58d73",
      "to": "0xe92244e3368561faf21648146511dede3a475eb5",
      "contractAddress": null
    }
  ],
  "libraries": [],
  "pending": [],
  "returns": {},
  "timestamp": 1783558644840,
  "chain": 5042002,
  "commit": "8a237db"
}