{
  "transactions": [
    {
      "hash": "0xc88c3e38f946367e32fe246f11d27cc6be00ef2d1098aac1887209b7555ff051",
      "transactionType": "CALL",
      "contractName": "ERC1967Proxy",
      "contractAddress": "0x49bb2c3d3aae0ad260f3ce76fa78e0323aae2510",
      "function": null,
      "arguments": null,
      "transaction": {
        "from": "0xa121e1ef31bbf0826aa67dc01e7977e80af58d73",
        "to": "0x49bb2c3d3aae0ad260f3ce76fa78e0323aae2510",
        "gas": "0xbc14",
        "value": "0x0",
        "input": "0xc3c64674000000000000000000000000e92244e3368561faf21648146511dede3a475eb50000000000000000000000000000000000000000000000000000000000000001",
        "nonce": "0x76",
        "chainId": "0x14a34"
      },
      "additionalContracts": [],
      "isFixedGasLimit": false
    },
    {
      "hash": "0x0d3874114b703e70676df233f80c2bd38c410fe1843ad5a4cb5ef20330b482e1",
      "transactionType": "CALL",
      "contractName": "ERC1967Proxy",
      "contractAddress": "0xe92244e3368561faf21648146511dede3a475eb5",
      "function": null,
      "arguments": null,
      "transaction": {
        "from": "0xa121e1ef31bbf0826aa67dc01e7977e80af58d73",
        "to": "0xe92244e3368561faf21648146511dede3a475eb5",
        "gas": "0xbc4d",
        "value": "0x0",
        "input": "0x9c34553600000000000000000000000049bb2c3d3aae0ad260f3ce76fa78e0323aae2510",
        "nonce": "0x77",
        "chainId": "0x14a34"
      },
      "additionalContracts": [],
      "isFixedGasLimit": false
    },
    {
      "hash": "0x2fb2bbb8ef09942febda33bef5611025838f0ad7dcae0b5af9d2b7180344c3ae",
      "transactionType": "CALL",
      "contractName": null,
      "contractAddress": "0xba5ed099633d3b313e4d5f7bdc1305d3c28ba5ed",
      "function": "deployCreate3(bytes32,bytes)",
      "arguments": [
        "0xa121e1ef31bbf0826aa67dc01e7977e80af58d7300c098a04fd04472798ba843",
        "0x60a080604052346100c257306080525f516020610dc75f395f51905f525460ff8160401c166100b3576002600160401b03196001600160401b03821601610060575b604051610d0090816100c782396080518181816104e401526105c00152f35b6001600160401b0319166001600160401b039081175f516020610dc75f395f51905f525581527fc7f505b2f371ae2175ee4913f4499e1f2633a7b5936321eed1cdaeb6115181d290602090a15f80610041565b63f92ee8a960e01b5f5260045ffd5b5f80fdfe60806040526004361015610011575f80fd5b5f3560e01c806323abf57914610908578063485cc955146107505780634f1ef2861461053857806352d1902d146104d257806359e7dfa0146103e7578063715018a61461036a57806379ba50971461031c5780638da5cb5b146102e85780639cfb6b9d146102b6578063aa87263914610284578063ad3cb1cc14610226578063b1deea4d146101a1578063e30c39781461016d578063f2fde38b146100e95763f887ea40146100be575f80fd5b346100e5575f3660031901126100e5575f546040516001600160a01b039091168152602090f35b5f80fd5b346100e55760203660031901126100e557610102610a3c565b61010a610b3d565b5f516020610ce05f395f51905f5280546001600160a01b0319166001600160a01b039283169081179091555f516020610c805f395f51905f52549091167f38d16b8cac22d99fc7c124b9cd0de2d3fa1faef420bfe791d8c362d765e227005f80a3005b346100e5575f3660031901126100e5575f516020610ce05f395f51905f52546040516001600160a01b039091168152602090f35b346100e55760203660031901126100e5576004356001600160a01b036101c682610a88565b1615610214575f81815260026020526040812080546001600160a01b0319163390811790915591907f691ec1ba2131d3e336da09dcc8077b8179f250475a04b2eb73b11b98b16d7f489080a3005b635643101560e11b5f5260045260245ffd5b346100e5575f3660031901126100e55760408051906102458183610a52565b600582526020820191640352e302e360dc1b83528151928391602083525180918160208501528484015e5f828201840152601f01601f19168101030190f35b346100e55760203660031901126100e5576004355f526002602052602060018060a01b0360405f205416604051908152f35b346100e55760203660031901126100e5576004355f526001602052602060018060a01b0360405f205416604051908152f35b346100e5575f3660031901126100e5575f516020610c805f395f51905f52546040516001600160a01b039091168152602090f35b346100e5575f3660031901126100e5575f516020610ce05f395f51905f5254336001600160a01b03909116036103575761035533610b5d565b005b63118cdaa760e01b5f523360045260245ffd5b346100e5575f3660031901126100e557610382610b3d565b5f516020610ce05f395f51905f5280546001600160a01b03199081169091555f516020610c805f395f51905f52805491821690555f906001600160a01b03167f8be0079c531659141344cd1fd0a4f28419497f9722a3daafe3b4186f6b6457e08280a3005b346100e55760203660031901126100e5576004356001600160a01b0361040c82610a88565b1680156104bf5733036104a9575f818152600260205260409020546001600160a01b0316908115610497575f81815260026020908152604080832080546001600160a01b03199081169091556001909252822080549091166001600160a01b0385161790557f15197bfe6b17fd8e7c67ae3297968bd1035326c3736a9ce2ebdaaca8e80ebefe9080a3005b6354814e4f60e01b5f5260045260245ffd5b633b48402760e21b5f526004523360245260445ffd5b50635643101560e11b5f5260045260245ffd5b346100e5575f3660031901126100e5577f00000000000000000000000000000000000000000000000000000000000000006001600160a01b031630036105295760206040515f516020610ca05f395f51905f528152f35b63703e46dd60e11b5f5260045ffd5b60403660031901126100e55761054c610a3c565b6024359067ffffffffffffffff82116100e557366023830112156100e557816004013567ffffffffffffffff811161073c5760405192610596601f8301601f191660200185610a52565b81845236602483830101116100e557815f9260246020930183870137840101526001600160a01b037f00000000000000000000000000000000000000000000000000000000000000001630811490811561071a575b50610529576105f8610b3d565b6040516352d1902d60e01b81526001600160a01b0382169290602081600481875afa5f91816106e6575b5061063a5783634c9c8ce360e01b5f5260045260245ffd5b805f516020610ca05f395f51905f528592036106d45750823b156106c2575f516020610ca05f395f51905f5280546001600160a01b031916821790557fbc7cd75a20ee27fd9adebab32041f755214dbc6bffa90cc0225b39da2e5c2d3b5f80a28051156106aa5761035591610bf3565b5050346106b357005b63b398979f60e01b5f5260045ffd5b634c9c8ce360e01b5f5260045260245ffd5b632a87526960e21b5f5260045260245ffd5b9091506020813d602011610712575b8161070260209383610a52565b810103126100e557519085610622565b3d91506106f5565b5f516020610ca05f395f51905f52546001600160a01b031614159050836105eb565b634e487b7160e01b5f52604160045260245ffd5b346100e55760403660031901126100e557610769610a3c565b6024356001600160a01b038116908190036100e5575f516020610cc05f395f51905f52549160ff8360401c16159267ffffffffffffffff811680159081610900575b60011490816108f6575b1590816108ed575b506108de5767ffffffffffffffff1981166001175f516020610cc05f395f51905f5255836108b2575b5081156108a3576107f5610bc8565b6107fd610bc8565b6001600160a01b038116156108905761081590610b5d565b61081d610bc8565b6bffffffffffffffffffffffff60a01b5f5416175f5561083957005b68ff0000000000000000195f516020610cc05f395f51905f5254165f516020610cc05f395f51905f52557fc7f505b2f371ae2175ee4913f4499e1f2633a7b5936321eed1cdaeb6115181d2602060405160018152a1005b631e4fbdf760e01b5f525f60045260245ffd5b63881f278960e01b5f5260045ffd5b68ffffffffffffffffff191668010000000000000001175f516020610cc05f395f51905f5255836107e6565b63f92ee8a960e01b5f5260045ffd5b905015856107bd565b303b1591506107b5565b8591506107ab565b346100e55760203660031901126100e5576004355f818152600160209081526040808320546002909252909120546001600160a01b03918216801593929091168380610a34575b610a21576001600160a01b0361096484610a88565b163314938233148015610a18575b85159081610a0f575b506109f857916020917f179355d9f76e9adbb6bec51e4574694ef2542965fbe6e97aa0756b660599df7e93155f146109f157505b5f84815260018352604080822080546001600160a01b031990811690915586835260028552918190208054909216909155519485526001600160a01b031693a3005b90506109af565b8363ec33630d60e01b5f526004523360245260445ffd5b9050158661097b565b50813314610972565b826335ea051f60e01b5f5260045260245ffd5b50801561094f565b600435906001600160a01b03821682036100e557565b90601f8019910116810190811067ffffffffffffffff82111761073c57604052565b51906001600160a01b03821682036100e557565b5f546040516392c8823b60e01b8152600481019290925260c090829060249082906001600160a01b03165afa908115610b32575f91610ac5575090565b905060c0813d60c011610b2a575b81610ae060c09383610a52565b810103126100e557610af181610a74565b50610afe60208201610a74565b90610b0b60408201610a74565b50606081015161ffff8116036100e55760800151801515036100e55790565b3d9150610ad3565b6040513d5f823e3d90fd5b5f516020610c805f395f51905f52546001600160a01b0316330361035757565b5f516020610ce05f395f51905f5280546001600160a01b03199081169091555f516020610c805f395f51905f5280549182166001600160a01b0393841690811790915591167f8be0079c531659141344cd1fd0a4f28419497f9722a3daafe3b4186f6b6457e05f80a3565b60ff5f516020610cc05f395f51905f525460401c1615610be457565b631afcd79f60e31b5f5260045ffd5b905f8091602081519101845af48080610c6c575b15610c275750506040513d81523d5f602083013e60203d82010160405290565b15610c4c57639996b31560e01b5f9081526001600160a01b0391909116600452602490fd5b3d15610c5d576040513d5f823e3d90fd5b63d6bda27560e01b5f5260045ffd5b503d151580610c075750813b1515610c0756fe9016d09d72d40fdae2fd8ceac6b6234c7706214fd39c1cd1e609a0528c199300360894a13ba1a3210667c828492db98dca3e2076cc3735a920a3ca505d382bbcf0c57e16840df040f15088dc2f81fe391c3923bec73e23a9662efc9c229c6a00237e158222e3e6968b72b9db0d8043aacf074ad9f650f0d1606b4d82ee432c00f0c57e16840df040f15088dc2f81fe391c3923bec73e23a9662efc9c229c6a00"
      ],
      "transaction": {
        "from": "0xa121e1ef31bbf0826aa67dc01e7977e80af58d73",
        "to": "0xba5ed099633d3b313e4d5f7bdc1305d3c28ba5ed",
        "gas": "0x11da05",
        "value": "0x0",
        "input": "0x9c36a286a121e1ef31bbf0826aa67dc01e7977e80af58d7300c098a04fd04472798ba84300000000000000000000000000000000000000000000000000000000000000400000000000000000000000000000000000000000000000000000000000000de760a080604052346100c257306080525f516020610dc75f395f51905f525460ff8160401c166100b3576002600160401b03196001600160401b03821601610060575b604051610d0090816100c782396080518181816104e401526105c00152f35b6001600160401b0319166001600160401b039081175f516020610dc75f395f51905f525581527fc7f505b2f371ae2175ee4913f4499e1f2633a7b5936321eed1cdaeb6115181d290602090a15f80610041565b63f92ee8a960e01b5f5260045ffd5b5f80fdfe60806040526004361015610011575f80fd5b5f3560e01c806323abf57914610908578063485cc955146107505780634f1ef2861461053857806352d1902d146104d257806359e7dfa0146103e7578063715018a61461036a57806379ba50971461031c5780638da5cb5b146102e85780639cfb6b9d146102b6578063aa87263914610284578063ad3cb1cc14610226578063b1deea4d146101a1578063e30c39781461016d578063f2fde38b146100e95763f887ea40146100be575f80fd5b346100e5575f3660031901126100e5575f546040516001600160a01b039091168152602090f35b5f80fd5b346100e55760203660031901126100e557610102610a3c565b61010a610b3d565b5f516020610ce05f395f51905f5280546001600160a01b0319166001600160a01b039283169081179091555f516020610c805f395f51905f52549091167f38d16b8cac22d99fc7c124b9cd0de2d3fa1faef420bfe791d8c362d765e227005f80a3005b346100e5575f3660031901126100e5575f516020610ce05f395f51905f52546040516001600160a01b039091168152602090f35b346100e55760203660031901126100e5576004356001600160a01b036101c682610a88565b1615610214575f81815260026020526040812080546001600160a01b0319163390811790915591907f691ec1ba2131d3e336da09dcc8077b8179f250475a04b2eb73b11b98b16d7f489080a3005b635643101560e11b5f5260045260245ffd5b346100e5575f3660031901126100e55760408051906102458183610a52565b600582526020820191640352e302e360dc1b83528151928391602083525180918160208501528484015e5f828201840152601f01601f19168101030190f35b346100e55760203660031901126100e5576004355f526002602052602060018060a01b0360405f205416604051908152f35b346100e55760203660031901126100e5576004355f526001602052602060018060a01b0360405f205416604051908152f35b346100e5575f3660031901126100e5575f516020610c805f395f51905f52546040516001600160a01b039091168152602090f35b346100e5575f3660031901126100e5575f516020610ce05f395f51905f5254336001600160a01b03909116036103575761035533610b5d565b005b63118cdaa760e01b5f523360045260245ffd5b346100e5575f3660031901126100e557610382610b3d565b5f516020610ce05f395f51905f5280546001600160a01b03199081169091555f516020610c805f395f51905f52805491821690555f906001600160a01b03167f8be0079c531659141344cd1fd0a4f28419497f9722a3daafe3b4186f6b6457e08280a3005b346100e55760203660031901126100e5576004356001600160a01b0361040c82610a88565b1680156104bf5733036104a9575f818152600260205260409020546001600160a01b0316908115610497575f81815260026020908152604080832080546001600160a01b03199081169091556001909252822080549091166001600160a01b0385161790557f15197bfe6b17fd8e7c67ae3297968bd1035326c3736a9ce2ebdaaca8e80ebefe9080a3005b6354814e4f60e01b5f5260045260245ffd5b633b48402760e21b5f526004523360245260445ffd5b50635643101560e11b5f5260045260245ffd5b346100e5575f3660031901126100e5577f00000000000000000000000000000000000000000000000000000000000000006001600160a01b031630036105295760206040515f516020610ca05f395f51905f528152f35b63703e46dd60e11b5f5260045ffd5b60403660031901126100e55761054c610a3c565b6024359067ffffffffffffffff82116100e557366023830112156100e557816004013567ffffffffffffffff811161073c5760405192610596601f8301601f191660200185610a52565b81845236602483830101116100e557815f9260246020930183870137840101526001600160a01b037f00000000000000000000000000000000000000000000000000000000000000001630811490811561071a575b50610529576105f8610b3d565b6040516352d1902d60e01b81526001600160a01b0382169290602081600481875afa5f91816106e6575b5061063a5783634c9c8ce360e01b5f5260045260245ffd5b805f516020610ca05f395f51905f528592036106d45750823b156106c2575f516020610ca05f395f51905f5280546001600160a01b031916821790557fbc7cd75a20ee27fd9adebab32041f755214dbc6bffa90cc0225b39da2e5c2d3b5f80a28051156106aa5761035591610bf3565b5050346106b357005b63b398979f60e01b5f5260045ffd5b634c9c8ce360e01b5f5260045260245ffd5b632a87526960e21b5f5260045260245ffd5b9091506020813d602011610712575b8161070260209383610a52565b810103126100e557519085610622565b3d91506106f5565b5f516020610ca05f395f51905f52546001600160a01b031614159050836105eb565b634e487b7160e01b5f52604160045260245ffd5b346100e55760403660031901126100e557610769610a3c565b6024356001600160a01b038116908190036100e5575f516020610cc05f395f51905f52549160ff8360401c16159267ffffffffffffffff811680159081610900575b60011490816108f6575b1590816108ed575b506108de5767ffffffffffffffff1981166001175f516020610cc05f395f51905f5255836108b2575b5081156108a3576107f5610bc8565b6107fd610bc8565b6001600160a01b038116156108905761081590610b5d565b61081d610bc8565b6bffffffffffffffffffffffff60a01b5f5416175f5561083957005b68ff0000000000000000195f516020610cc05f395f51905f5254165f516020610cc05f395f51905f52557fc7f505b2f371ae2175ee4913f4499e1f2633a7b5936321eed1cdaeb6115181d2602060405160018152a1005b631e4fbdf760e01b5f525f60045260245ffd5b63881f278960e01b5f5260045ffd5b68ffffffffffffffffff191668010000000000000001175f516020610cc05f395f51905f5255836107e6565b63f92ee8a960e01b5f5260045ffd5b905015856107bd565b303b1591506107b5565b8591506107ab565b346100e55760203660031901126100e5576004355f818152600160209081526040808320546002909252909120546001600160a01b03918216801593929091168380610a34575b610a21576001600160a01b0361096484610a88565b163314938233148015610a18575b85159081610a0f575b506109f857916020917f179355d9f76e9adbb6bec51e4574694ef2542965fbe6e97aa0756b660599df7e93155f146109f157505b5f84815260018352604080822080546001600160a01b031990811690915586835260028552918190208054909216909155519485526001600160a01b031693a3005b90506109af565b8363ec33630d60e01b5f526004523360245260445ffd5b9050158661097b565b50813314610972565b826335ea051f60e01b5f5260045260245ffd5b50801561094f565b600435906001600160a01b03821682036100e557565b90601f8019910116810190811067ffffffffffffffff82111761073c57604052565b51906001600160a01b03821682036100e557565b5f546040516392c8823b60e01b8152600481019290925260c090829060249082906001600160a01b03165afa908115610b32575f91610ac5575090565b905060c0813d60c011610b2a575b81610ae060c09383610a52565b810103126100e557610af181610a74565b50610afe60208201610a74565b90610b0b60408201610a74565b50606081015161ffff8116036100e55760800151801515036100e55790565b3d9150610ad3565b6040513d5f823e3d90fd5b5f516020610c805f395f51905f52546001600160a01b0316330361035757565b5f516020610ce05f395f51905f5280546001600160a01b03199081169091555f516020610c805f395f51905f5280549182166001600160a01b0393841690811790915591167f8be0079c531659141344cd1fd0a4f28419497f9722a3daafe3b4186f6b6457e05f80a3565b60ff5f516020610cc05f395f51905f525460401c1615610be457565b631afcd79f60e31b5f5260045ffd5b905f8091602081519101845af48080610c6c575b15610c275750506040513d81523d5f602083013e60203d82010160405290565b15610c4c57639996b31560e01b5f9081526001600160a01b0391909116600452602490fd5b3d15610c5d576040513d5f823e3d90fd5b63d6bda27560e01b5f5260045ffd5b503d151580610c075750813b1515610c0756fe9016d09d72d40fdae2fd8ceac6b6234c7706214fd39c1cd1e609a0528c199300360894a13ba1a3210667c828492db98dca3e2076cc3735a920a3ca505d382bbcf0c57e16840df040f15088dc2f81fe391c3923bec73e23a9662efc9c229c6a00237e158222e3e6968b72b9db0d8043aacf074ad9f650f0d1606b4d82ee432c00f0c57e16840df040f15088dc2f81fe391c3923bec73e23a9662efc9c229c6a0000000000000000000000000000000000000000000000000000",
        "nonce": "0x78",
        "chainId": "0x14a34"
      },
      "additionalContracts": [
        {
          "transactionType": "CREATE2",
          "contractName": null,
          "address": "0x69908c1858ef5c573ed01638157953610e610abc",
          "initCode": "0x67363d3d37363d34f03d5260086018f3"
        },
        {
          "transactionType": "CREATE",
          "contractName": "Access0x1SponsorRegistry",
          "address": "0x5dad610670d2b698e6dd079733f249fd3c28c03e",
          "initCode": "0x60a080604052346100c257306080525f516020610dc75f395f51905f525460ff8160401c166100b3576002600160401b03196001600160401b03821601610060575b604051610d0090816100c782396080518181816104e401526105c00152f35b6001600160401b0319166001600160401b039081175f516020610dc75f395f51905f525581527fc7f505b2f371ae2175ee4913f4499e1f2633a7b5936321eed1cdaeb6115181d290602090a15f80610041565b63f92ee8a960e01b5f5260045ffd5b5f80fdfe60806040526004361015610011575f80fd5b5f3560e01c806323abf57914610908578063485cc955146107505780634f1ef2861461053857806352d1902d146104d257806359e7dfa0146103e7578063715018a61461036a57806379ba50971461031c5780638da5cb5b146102e85780639cfb6b9d146102b6578063aa87263914610284578063ad3cb1cc14610226578063b1deea4d146101a1578063e30c39781461016d578063f2fde38b146100e95763f887ea40146100be575f80fd5b346100e5575f3660031901126100e5575f546040516001600160a01b039091168152602090f35b5f80fd5b346100e55760203660031901126100e557610102610a3c565b61010a610b3d565b5f516020610ce05f395f51905f5280546001600160a01b0319166001600160a01b039283169081179091555f516020610c805f395f51905f52549091167f38d16b8cac22d99fc7c124b9cd0de2d3fa1faef420bfe791d8c362d765e227005f80a3005b346100e5575f3660031901126100e5575f516020610ce05f395f51905f52546040516001600160a01b039091168152602090f35b346100e55760203660031901126100e5576004356001600160a01b036101c682610a88565b1615610214575f81815260026020526040812080546001600160a01b0319163390811790915591907f691ec1ba2131d3e336da09dcc8077b8179f250475a04b2eb73b11b98b16d7f489080a3005b635643101560e11b5f5260045260245ffd5b346100e5575f3660031901126100e55760408051906102458183610a52565b600582526020820191640352e302e360dc1b83528151928391602083525180918160208501528484015e5f828201840152601f01601f19168101030190f35b346100e55760203660031901126100e5576004355f526002602052602060018060a01b0360405f205416604051908152f35b346100e55760203660031901126100e5576004355f526001602052602060018060a01b0360405f205416604051908152f35b346100e5575f3660031901126100e5575f516020610c805f395f51905f52546040516001600160a01b039091168152602090f35b346100e5575f3660031901126100e5575f516020610ce05f395f51905f5254336001600160a01b03909116036103575761035533610b5d565b005b63118cdaa760e01b5f523360045260245ffd5b346100e5575f3660031901126100e557610382610b3d565b5f516020610ce05f395f51905f5280546001600160a01b03199081169091555f516020610c805f395f51905f52805491821690555f906001600160a01b03167f8be0079c531659141344cd1fd0a4f28419497f9722a3daafe3b4186f6b6457e08280a3005b346100e55760203660031901126100e5576004356001600160a01b0361040c82610a88565b1680156104bf5733036104a9575f818152600260205260409020546001600160a01b0316908115610497575f81815260026020908152604080832080546001600160a01b03199081169091556001909252822080549091166001600160a01b0385161790557f15197bfe6b17fd8e7c67ae3297968bd1035326c3736a9ce2ebdaaca8e80ebefe9080a3005b6354814e4f60e01b5f5260045260245ffd5b633b48402760e21b5f526004523360245260445ffd5b50635643101560e11b5f5260045260245ffd5b346100e5575f3660031901126100e5577f00000000000000000000000000000000000000000000000000000000000000006001600160a01b031630036105295760206040515f516020610ca05f395f51905f528152f35b63703e46dd60e11b5f5260045ffd5b60403660031901126100e55761054c610a3c565b6024359067ffffffffffffffff82116100e557366023830112156100e557816004013567ffffffffffffffff811161073c5760405192610596601f8301601f191660200185610a52565b81845236602483830101116100e557815f9260246020930183870137840101526001600160a01b037f00000000000000000000000000000000000000000000000000000000000000001630811490811561071a575b50610529576105f8610b3d565b6040516352d1902d60e01b81526001600160a01b0382169290602081600481875afa5f91816106e6575b5061063a5783634c9c8ce360e01b5f5260045260245ffd5b805f516020610ca05f395f51905f528592036106d45750823b156106c2575f516020610ca05f395f51905f5280546001600160a01b031916821790557fbc7cd75a20ee27fd9adebab32041f755214dbc6bffa90cc0225b39da2e5c2d3b5f80a28051156106aa5761035591610bf3565b5050346106b357005b63b398979f60e01b5f5260045ffd5b634c9c8ce360e01b5f5260045260245ffd5b632a87526960e21b5f5260045260245ffd5b9091506020813d602011610712575b8161070260209383610a52565b810103126100e557519085610622565b3d91506106f5565b5f516020610ca05f395f51905f52546001600160a01b031614159050836105eb565b634e487b7160e01b5f52604160045260245ffd5b346100e55760403660031901126100e557610769610a3c565b6024356001600160a01b038116908190036100e5575f516020610cc05f395f51905f52549160ff8360401c16159267ffffffffffffffff811680159081610900575b60011490816108f6575b1590816108ed575b506108de5767ffffffffffffffff1981166001175f516020610cc05f395f51905f5255836108b2575b5081156108a3576107f5610bc8565b6107fd610bc8565b6001600160a01b038116156108905761081590610b5d565b61081d610bc8565b6bffffffffffffffffffffffff60a01b5f5416175f5561083957005b68ff0000000000000000195f516020610cc05f395f51905f5254165f516020610cc05f395f51905f52557fc7f505b2f371ae2175ee4913f4499e1f2633a7b5936321eed1cdaeb6115181d2602060405160018152a1005b631e4fbdf760e01b5f525f60045260245ffd5b63881f278960e01b5f5260045ffd5b68ffffffffffffffffff191668010000000000000001175f516020610cc05f395f51905f5255836107e6565b63f92ee8a960e01b5f5260045ffd5b905015856107bd565b303b1591506107b5565b8591506107ab565b346100e55760203660031901126100e5576004355f818152600160209081526040808320546002909252909120546001600160a01b03918216801593929091168380610a34575b610a21576001600160a01b0361096484610a88565b163314938233148015610a18575b85159081610a0f575b506109f857916020917f179355d9f76e9adbb6bec51e4574694ef2542965fbe6e97aa0756b660599df7e93155f146109f157505b5f84815260018352604080822080546001600160a01b031990811690915586835260028552918190208054909216909155519485526001600160a01b031693a3005b90506109af565b8363ec33630d60e01b5f526004523360245260445ffd5b9050158661097b565b50813314610972565b826335ea051f60e01b5f5260045260245ffd5b50801561094f565b600435906001600160a01b03821682036100e557565b90601f8019910116810190811067ffffffffffffffff82111761073c57604052565b51906001600160a01b03821682036100e557565b5f546040516392c8823b60e01b8152600481019290925260c090829060249082906001600160a01b03165afa908115610b32575f91610ac5575090565b905060c0813d60c011610b2a575b81610ae060c09383610a52565b810103126100e557610af181610a74565b50610afe60208201610a74565b90610b0b60408201610a74565b50606081015161ffff8116036100e55760800151801515036100e55790565b3d9150610ad3565b6040513d5f823e3d90fd5b5f516020610c805f395f51905f52546001600160a01b0316330361035757565b5f516020610ce05f395f51905f5280546001600160a01b03199081169091555f516020610c805f395f51905f5280549182166001600160a01b0393841690811790915591167f8be0079c531659141344cd1fd0a4f28419497f9722a3daafe3b4186f6b6457e05f80a3565b60ff5f516020610cc05f395f51905f525460401c1615610be457565b631afcd79f60e31b5f5260045ffd5b905f8091602081519101845af48080610c6c575b15610c275750506040513d81523d5f602083013e60203d82010160405290565b15610c4c57639996b31560e01b5f9081526001600160a01b0391909116600452602490fd5b3d15610c5d576040513d5f823e3d90fd5b63d6bda27560e01b5f5260045ffd5b503d151580610c075750813b1515610c0756fe9016d09d72d40fdae2fd8ceac6b6234c7706214fd39c1cd1e609a0528c199300360894a13ba1a3210667c828492db98dca3e2076cc3735a920a3ca505d382bbcf0c57e16840df040f15088dc2f81fe391c3923bec73e23a9662efc9c229c6a00237e158222e3e6968b72b9db0d8043aacf074ad9f650f0d1606b4d82ee432c00f0c57e16840df040f15088dc2f81fe391c3923bec73e23a9662efc9c229c6a00"
        }
      ],
      "isFixedGasLimit": false
    },
    {
      "hash": "0x7a83daf66f048a349b7d8d01eb3672f34c4dc9d6eb2f23bba83f3a76017ee40f",
      "transactionType": "CALL",
      "contractName": null,
      "contractAddress": "0xba5ed099633d3b313e4d5f7bdc1305d3c28ba5ed",
      "function": "deployCreate3(bytes32,bytes)",
      "arguments": [
        "0xa121e1ef31bbf0826aa67dc01e7977e80af58d7300d80bfdd7f10115bdb0f399",
        "0x608060405261026c803803806100148161016e565b9283398101604082820312610156578151916001600160a01b03831690818403610156576020810151906001600160401b038211610156570182601f82011215610156578051906001600160401b03821161015a5761007c601f8301601f191660200161016e565b938285526020838301011161015657815f9260208093018387015e8401015281511561014757823b15610135577f360894a13ba1a3210667c828492db98dca3e2076cc3735a920a3ca505d382bbc80546001600160a01b031916821790557fbc7cd75a20ee27fd9adebab32041f755214dbc6bffa90cc0225b39da2e5c2d3b5f80a280511561011e5761010e91610193565b505b604051604c90816102208239f35b505034156101105763b398979f60e01b5f5260045ffd5b634c9c8ce360e01b5f5260045260245ffd5b6330a289cf60e21b5f5260045ffd5b5f80fd5b634e487b7160e01b5f52604160045260245ffd5b6040519190601f01601f191682016001600160401b0381118382101761015a57604052565b905f8091602081519101845af4808061020c575b156101c75750506040513d81523d5f602083013e60203d82010160405290565b156101ec57639996b31560e01b5f9081526001600160a01b0391909116600452602490fd5b3d156101fd576040513d5f823e3d90fd5b63d6bda27560e01b5f5260045ffd5b503d1515806101a75750813b15156101a756fe60806040527f360894a13ba1a3210667c828492db98dca3e2076cc3735a920a3ca505d382bbc545f9081906001600160a01b0316368280378136915af43d5f803e156048573d5ff35b3d5ffd0000000000000000000000005dad610670d2b698e6dd079733f249fd3c28c03e00000000000000000000000000000000000000000000000000000000000000400000000000000000000000000000000000000000000000000000000000000044485cc955000000000000000000000000a121e1ef31bbf0826aa67dc01e7977e80af58d73000000000000000000000000e92244e3368561faf21648146511dede3a475eb500000000000000000000000000000000000000000000000000000000"
      ],
      "transaction": {
        "from": "0xa121e1ef31bbf0826aa67dc01e7977e80af58d73",
        "to": "0xba5ed099633d3b313e4d5f7bdc1305d3c28ba5ed",
        "gas": "0x4efc0",
        "value": "0x0",
        "input": "0x9c36a286a121e1ef31bbf0826aa67dc01e7977e80af58d7300d80bfdd7f10115bdb0f3990000000000000000000000000000000000000000000000000000000000000040000000000000000000000000000000000000000000000000000000000000032c608060405261026c803803806100148161016e565b9283398101604082820312610156578151916001600160a01b03831690818403610156576020810151906001600160401b038211610156570182601f82011215610156578051906001600160401b03821161015a5761007c601f8301601f191660200161016e565b938285526020838301011161015657815f9260208093018387015e8401015281511561014757823b15610135577f360894a13ba1a3210667c828492db98dca3e2076cc3735a920a3ca505d382bbc80546001600160a01b031916821790557fbc7cd75a20ee27fd9adebab32041f755214dbc6bffa90cc0225b39da2e5c2d3b5f80a280511561011e5761010e91610193565b505b604051604c90816102208239f35b505034156101105763b398979f60e01b5f5260045ffd5b634c9c8ce360e01b5f5260045260245ffd5b6330a289cf60e21b5f5260045ffd5b5f80fd5b634e487b7160e01b5f52604160045260245ffd5b6040519190601f01601f191682016001600160401b0381118382101761015a57604052565b905f8091602081519101845af4808061020c575b156101c75750506040513d81523d5f602083013e60203d82010160405290565b156101ec57639996b31560e01b5f9081526001600160a01b0391909116600452602490fd5b3d156101fd576040513d5f823e3d90fd5b63d6bda27560e01b5f5260045ffd5b503d1515806101a75750813b15156101a756fe60806040527f360894a13ba1a3210667c828492db98dca3e2076cc3735a920a3ca505d382bbc545f9081906001600160a01b0316368280378136915af43d5f803e156048573d5ff35b3d5ffd0000000000000000000000005dad610670d2b698e6dd079733f249fd3c28c03e00000000000000000000000000000000000000000000000000000000000000400000000000000000000000000000000000000000000000000000000000000044485cc955000000000000000000000000a121e1ef31bbf0826aa67dc01e7977e80af58d73000000000000000000000000e92244e3368561faf21648146511dede3a475eb5000000000000000000000000000000000000000000000000000000000000000000000000000000000000000000000000",
        "nonce": "0x79",
        "chainId": "0x14a34"
      },
      "additionalContracts": [
        {
          "transactionType": "CREATE2",
          "contractName": null,
          "address": "0x9191c676e89a92c4a9faf8e004396a5779d9f3e3",
          "initCode": "0x67363d3d37363d34f03d5260086018f3"
        },
        {
          "transactionType": "CREATE",
          "contractName": "ERC1967Proxy",
          "address": "0x9dc48b96b9fc737d4cdf0dcc7b56164e6464b736",
          "initCode": "0x608060405261026c803803806100148161016e565b9283398101604082820312610156578151916001600160a01b03831690818403610156576020810151906001600160401b038211610156570182601f82011215610156578051906001600160401b03821161015a5761007c601f8301601f191660200161016e565b938285526020838301011161015657815f9260208093018387015e8401015281511561014757823b15610135577f360894a13ba1a3210667c828492db98dca3e2076cc3735a920a3ca505d382bbc80546001600160a01b031916821790557fbc7cd75a20ee27fd9adebab32041f755214dbc6bffa90cc0225b39da2e5c2d3b5f80a280511561011e5761010e91610193565b505b604051604c90816102208239f35b505034156101105763b398979f60e01b5f5260045ffd5b634c9c8ce360e01b5f5260045260245ffd5b6330a289cf60e21b5f5260045ffd5b5f80fd5b634e487b7160e01b5f52604160045260245ffd5b6040519190601f01601f191682016001600160401b0381118382101761015a57604052565b905f8091602081519101845af4808061020c575b156101c75750506040513d81523d5f602083013e60203d82010160405290565b156101ec57639996b31560e01b5f9081526001600160a01b0391909116600452602490fd5b3d156101fd576040513d5f823e3d90fd5b63d6bda27560e01b5f5260045ffd5b503d1515806101a75750813b15156101a756fe60806040527f360894a13ba1a3210667c828492db98dca3e2076cc3735a920a3ca505d382bbc545f9081906001600160a01b0316368280378136915af43d5f803e156048573d5ff35b3d5ffd0000000000000000000000005dad610670d2b698e6dd079733f249fd3c28c03e00000000000000000000000000000000000000000000000000000000000000400000000000000000000000000000000000000000000000000000000000000044485cc955000000000000000000000000a121e1ef31bbf0826aa67dc01e7977e80af58d73000000000000000000000000e92244e3368561faf21648146511dede3a475eb500000000000000000000000000000000000000000000000000000000"
        }
      ],
      "isFixedGasLimit": false
    },
    {
      "hash": "0xd682837c14808784fa4747b48de539c9db5b5dbc7bf5c397fc2dd0a9c338765c",
      "transactionType": "CALL",
      "contractName": "ERC1967Proxy",
      "contractAddress": "0xe92244e3368561faf21648146511dede3a475eb5",
      "function": null,
      "arguments": null,
      "transaction": {
        "from": "0xa121e1ef31bbf0826aa67dc01e7977e80af58d73",
        "to": "0xe92244e3368561faf21648146511dede3a475eb5",
        "gas": "0xafe4",
        "value": "0x0",
        "input": "0x15f69012000000000000000000000000036cbd53842c5426634e7929541ec2318f3dcf7e0000000000000000000000000000000000000000000000000000000000000001",
        "nonce": "0x7a",
        "chainId": "0x14a34"
      },
      "additionalContracts": [],
      "isFixedGasLimit": false
    },
    {
      "hash": "0x68a6c9dc3a5430fd1375ef29fd0abe6cc5e4eb61218ff197059872590f8c6242",
      "transactionType": "CALL",
      "contractName": "ERC1967Proxy",
      "contractAddress": "0xe92244e3368561faf21648146511dede3a475eb5",
      "function": null,
      "arguments": null,
      "transaction": {
        "from": "0xa121e1ef31bbf0826aa67dc01e7977e80af58d73",
        "to": "0xe92244e3368561faf21648146511dede3a475eb5",
        "gas": "0xca81",
        "value": "0x0",
        "input": "0xeceb9a9c000000000000000000000000036cbd53842c5426634e7929541ec2318f3dcf7e000000000000000000000000d30e2101a97dcbaebcbc04f14c3f624e67a351650000000000000000000000000000000000000000000000000000000000015f90",
        "nonce": "0x7b",
        "chainId": "0x14a34"
      },
      "additionalContracts": [],
      "isFixedGasLimit": false
    }
  ],
  "receipts": [
    {
      "status": "0x1",
      "cumulativeGasUsed": "0x2a7d02",
      "logs": [
        {
          "address": "0x49bb2c3d3aae0ad260f3ce76fa78e0323aae2510",
          "topics": [
            "0x8443a265af33599abe6c9ed0c3cabd8e2a6c5b8ea35c1d1ed40c513242f95d45",
            "0x000000000000000000000000e92244e3368561faf21648146511dede3a475eb5"
          ],
          "data": "0x0000000000000000000000000000000000000000000000000000000000000001",
          "blockHash": "0x9f2970e4bfb875736f0fa2205425cd8d0092ceab0503f590a80f2a8684405aba",
          "blockNumber": "0x29e4216",
          "blockTimestamp": "0x6a4fe30c",
          "transactionHash": "0x0d3874114b703e70676df233f80c2bd38c410fe1843ad5a4cb5ef20330b482e1",
          "transactionIndex": "0x6",
          "logIndex": "0x47",
          "removed": false
        }
      ],
      "logsBloom": "0x00000000000000000000000000000000000000000200000000000000000000000000000000000000000000000000000000000000000010000000000000000000000000000000000000000000000000000000000000000000000000000000000000200000000000000000000000000000000000000000000000800000000000010000000000000000000000000000004000000000008000000000000000000000000000000800000000000000000000000000000000000000000000000000000000000000000000000000000000040000000000000000000000000000000000000000000000000000000000000000000000000000000000000000000000000000",
      "type": "0x2",
      "transactionHash": "0x0d3874114b703e70676df233f80c2bd38c410fe1843ad5a4cb5ef20330b482e1",
      "transactionIndex": "0x6",
      "blockHash": "0x9f2970e4bfb875736f0fa2205425cd8d0092ceab0503f590a80f2a8684405aba",
      "blockNumber": "0x29e4216",
      "gasUsed": "0x809a",
      "effectiveGasPrice": "0x5b8d80",
      "blobGasUsed": "0xae38",
      "from": "0xa121e1ef31bbf0826aa67dc01e7977e80af58d73",
      "to": "0x49bb2c3d3aae0ad260f3ce76fa78e0323aae2510",
      "contractAddress": null,
      "daFootprintGasScalar": "0x1be",
      "l1BaseFeeScalar": "0x44d",
      "l1BlobBaseFee": "0x3ea32d3",
      "l1BlobBaseFeeScalar": "0xa118b",
      "l1Fee": "0x16eeb9275",
      "l1GasPrice": "0x3da5e760",
      "l1GasUsed": "0x640"
    },
    {
      "status": "0x1",
      "cumulativeGasUsed": "0x2afdc3",
      "logs": [
        {
          "address": "0xe92244e3368561faf21648146511dede3a475eb5",
          "topics": [
            "0x49c15d0527cef9e9dc7a0c9a63becc5d2c2f6b7f0a7d353f776fd48e93863a09",
            "0x00000000000000000000000049bb2c3d3aae0ad260f3ce76fa78e0323aae2510",
            "0x00000000000000000000000049bb2c3d3aae0ad260f3ce76fa78e0323aae2510"
          ],
          "data": "0x",
          "blockHash": "0x9f2970e4bfb875736f0fa2205425cd8d0092ceab0503f590a80f2a8684405aba",
          "blockNumber": "0x29e4216",
          "blockTimestamp": "0x6a4fe30c",
          "transactionHash": "0xc88c3e38f946367e32fe246f11d27cc6be00ef2d1098aac1887209b7555ff051",
          "transactionIndex": "0x7",
          "logIndex": "0x48",
          "removed": false
        }
      ],
      "logsBloom": "0x00000008000000000000000000000000000000000000000000000000000000000000000000000000000000000000000000000000000000000010000000000000000000000000000000000000400000000000000000000000000000000000000000000000000000000000000000000000000000001000000000000000000000000000000000000000000000000000000000000000000001000000000000000000000000000000000020000000000000000000000000000000000020000000000000000000000000000000000000000000000000000000000000200000000000000000000000000000000000000000000000000000000000000000000000000020",
      "type": "0x2",
      "transactionHash": "0xc88c3e38f946367e32fe246f11d27cc6be00ef2d1098aac1887209b7555ff051",
      "transactionIndex": "0x7",
      "blockHash": "0x9f2970e4bfb875736f0fa2205425cd8d0092ceab0503f590a80f2a8684405aba",
      "blockNumber": "0x29e4216",
      "gasUsed": "0x80c1",
      "effectiveGasPrice": "0x5b8d80",
      "blobGasUsed": "0xae38",
      "from": "0xa121e1ef31bbf0826aa67dc01e7977e80af58d73",
      "to": "0xe92244e3368561faf21648146511dede3a475eb5",
      "contractAddress": null,
      "daFootprintGasScalar": "0x1be",
      "l1BaseFeeScalar": "0x44d",
      "l1BlobBaseFee": "0x3ea32d3",
      "l1BlobBaseFeeScalar": "0xa118b",
      "l1Fee": "0x16eeb9275",
      "l1GasPrice": "0x3da5e760",
      "l1GasUsed": "0x640"
    },
    {
      "status": "0x1",
      "cumulativeGasUsed": "0x37ea61",
      "logs": [
        {
          "address": "0xba5ed099633d3b313e4d5f7bdc1305d3c28ba5ed",
          "topics": [
            "0x2feea65dd4e9f9cbd86b74b7734210c59a1b2981b5b137bd0ee3e208200c9067",
            "0x00000000000000000000000069908c1858ef5c573ed01638157953610e610abc",
            "0x4b7577007c2f113e38feec405235846de85c9d546790dd416ff73c10689e01df"
          ],
          "data": "0x",
          "blockHash": "0x9f2970e4bfb875736f0fa2205425cd8d0092ceab0503f590a80f2a8684405aba",
          "blockNumber": "0x29e4216",
          "blockTimestamp": "0x6a4fe30c",
          "transactionHash": "0x2fb2bbb8ef09942febda33bef5611025838f0ad7dcae0b5af9d2b7180344c3ae",
          "transactionIndex": "0x8",
          "logIndex": "0x49",
          "removed": false
        },
        {
          "address": "0x5dad610670d2b698e6dd079733f249fd3c28c03e",
          "topics": [
            "0xc7f505b2f371ae2175ee4913f4499e1f2633a7b5936321eed1cdaeb6115181d2"
          ],
          "data": "0x000000000000000000000000000000000000000000000000ffffffffffffffff",
          "blockHash": "0x9f2970e4bfb875736f0fa2205425cd8d0092ceab0503f590a80f2a8684405aba",
          "blockNumber": "0x29e4216",
          "blockTimestamp": "0x6a4fe30c",
          "transactionHash": "0x2fb2bbb8ef09942febda33bef5611025838f0ad7dcae0b5af9d2b7180344c3ae",
          "transactionIndex": "0x8",
          "logIndex": "0x4a",
          "removed": false
        },
        {
          "address": "0xba5ed099633d3b313e4d5f7bdc1305d3c28ba5ed",
          "topics": [
            "0x4db17dd5e4732fb6da34a148104a592783ca119a1e7bb8829eba6cbadef0b511",
            "0x0000000000000000000000005dad610670d2b698e6dd079733f249fd3c28c03e"
          ],
          "data": "0x",
          "blockHash": "0x9f2970e4bfb875736f0fa2205425cd8d0092ceab0503f590a80f2a8684405aba",
          "blockNumber": "0x29e4216",
          "blockTimestamp": "0x6a4fe30c",
          "transactionHash": "0x2fb2bbb8ef09942febda33bef5611025838f0ad7dcae0b5af9d2b7180344c3ae",
          "transactionIndex": "0x8",
          "logIndex": "0x4b",
          "removed": false
        }
      ],
      "logsBloom": "0x00020000000000000000000000000000000000008000000000000400200000000000000000000000200002000000000000000000000004000000000000000000000000000000000000000000020000000000000000000000001000000000000000000000000000000000000000000000200000000220000000000000000000000000000000000000040800000000000000000000000080000000004000000000000000000000000000000000000000000000000020000000000000000000000000000000000000000200000000000000000000002044000400000000000000000000000400000200000000000000000000000000000000000000000000000000",
      "type": "0x2",
      "transactionHash": "0x2fb2bbb8ef09942febda33bef5611025838f0ad7dcae0b5af9d2b7180344c3ae",
      "transactionIndex": "0x8",
      "blockHash": "0x9f2970e4bfb875736f0fa2205425cd8d0092ceab0503f590a80f2a8684405aba",
      "blockNumber": "0x29e4216",
      "gasUsed": "0xcec9e",
      "effectiveGasPrice": "0x5b8d80",
      "blobGasUsed": "0xe8e8a",
      "from": "0xa121e1ef31bbf0826aa67dc01e7977e80af58d73",
      "to": "0xba5ed099633d3b313e4d5f7bdc1305d3c28ba5ed",
      "contractAddress": null,
      "daFootprintGasScalar": "0x1be",
      "l1BaseFeeScalar": "0x44d",
      "l1BlobBaseFee": "0x3ea32d3",
      "l1BlobBaseFeeScalar": "0xa118b",
      "l1Fee": "0x1ea87256cc",
      "l1GasPrice": "0x3da5e760",
      "l1GasUsed": "0x85b0"
    },
    {
      "status": "0x1",
      "cumulativeGasUsed": "0x3e9445",
      "logs": [
        {
          "address": "0xba5ed099633d3b313e4d5f7bdc1305d3c28ba5ed",
          "topics": [
            "0x2feea65dd4e9f9cbd86b74b7734210c59a1b2981b5b137bd0ee3e208200c9067",
            "0x0000000000000000000000009191c676e89a92c4a9faf8e004396a5779d9f3e3",
            "0x20cce6d078488c6a2586018b06fd11cee218a28c43f9468e31077fa1884815e0"
          ],
          "data": "0x",
          "blockHash": "0x9f2970e4bfb875736f0fa2205425cd8d0092ceab0503f590a80f2a8684405aba",
          "blockNumber": "0x29e4216",
          "blockTimestamp": "0x6a4fe30c",
          "transactionHash": "0x68a6c9dc3a5430fd1375ef29fd0abe6cc5e4eb61218ff197059872590f8c6242",
          "transactionIndex": "0xd",
          "logIndex": "0x4f",
          "removed": false
        },
        {
          "address": "0x9dc48b96b9fc737d4cdf0dcc7b56164e6464b736",
          "topics": [
            "0xbc7cd75a20ee27fd9adebab32041f755214dbc6bffa90cc0225b39da2e5c2d3b",
            "0x0000000000000000000000005dad610670d2b698e6dd079733f249fd3c28c03e"
          ],
          "data": "0x",
          "blockHash": "0x9f2970e4bfb875736f0fa2205425cd8d0092ceab0503f590a80f2a8684405aba",
          "blockNumber": "0x29e4216",
          "blockTimestamp": "0x6a4fe30c",
          "transactionHash": "0x68a6c9dc3a5430fd1375ef29fd0abe6cc5e4eb61218ff197059872590f8c6242",
          "transactionIndex": "0xd",
          "logIndex": "0x50",
          "removed": false
        },
        {
          "address": "0x9dc48b96b9fc737d4cdf0dcc7b56164e6464b736",
          "topics": [
            "0x8be0079c531659141344cd1fd0a4f28419497f9722a3daafe3b4186f6b6457e0",
            "0x0000000000000000000000000000000000000000000000000000000000000000",
            "0x000000000000000000000000a121e1ef31bbf0826aa67dc01e7977e80af58d73"
          ],
          "data": "0x",
          "blockHash": "0x9f2970e4bfb875736f0fa2205425cd8d0092ceab0503f590a80f2a8684405aba",
          "blockNumber": "0x29e4216",
          "blockTimestamp": "0x6a4fe30c",
          "transactionHash": "0x68a6c9dc3a5430fd1375ef29fd0abe6cc5e4eb61218ff197059872590f8c6242",
          "transactionIndex": "0xd",
          "logIndex": "0x51",
          "removed": false
        },
        {
          "address": "0x9dc48b96b9fc737d4cdf0dcc7b56164e6464b736",
          "topics": [
            "0xc7f505b2f371ae2175ee4913f4499e1f2633a7b5936321eed1cdaeb6115181d2"
          ],
          "data": "0x0000000000000000000000000000000000000000000000000000000000000001",
          "blockHash": "0x9f2970e4bfb875736f0fa2205425cd8d0092ceab0503f590a80f2a8684405aba",
          "blockNumber": "0x29e4216",
          "blockTimestamp": "0x6a4fe30c",
          "transactionHash": "0x68a6c9dc3a5430fd1375ef29fd0abe6cc5e4eb61218ff197059872590f8c6242",
          "transactionIndex": "0xd",
          "logIndex": "0x52",
          "removed": false
        },
        {
          "address": "0xba5ed099633d3b313e4d5f7bdc1305d3c28ba5ed",
          "topics": [
            "0x4db17dd5e4732fb6da34a148104a592783ca119a1e7bb8829eba6cbadef0b511",
            "0x0000000000000000000000009dc48b96b9fc737d4cdf0dcc7b56164e6464b736"
          ],
          "data": "0x",
          "blockHash": "0x9f2970e4bfb875736f0fa2205425cd8d0092ceab0503f590a80f2a8684405aba",
          "blockNumber": "0x29e4216",
          "blockTimestamp": "0x6a4fe30c",
          "transactionHash": "0x68a6c9dc3a5430fd1375ef29fd0abe6cc5e4eb61218ff197059872590f8c6242",
          "transactionIndex": "0xd",
          "logIndex": "0x53",
          "removed": false
        }
      ],
      "logsBloom": "0x000200000000000000000000000000004000000080000000008000002000000000000000000000000000000000c0000000000000000006000000000000000000020000000000000000000000020002000001000000000000000000000008000000000000020000000000000000000800000400000020800000000000000000400000000000200000040800000000004000004000000080000000004100000000000000000000000000000000000000000000000000000000000000000000000000000020000000000200000000000000000000002004000400000000000020000000000000000200040000000000000000000010000014000000000000000000",
      "type": "0x2",
      "transactionHash": "0x68a6c9dc3a5430fd1375ef29fd0abe6cc5e4eb61218ff197059872590f8c6242",
      "transactionIndex": "0xd",
      "blockHash": "0x9f2970e4bfb875736f0fa2205425cd8d0092ceab0503f590a80f2a8684405aba",
      "blockNumber": "0x29e4216",
      "gasUsed": "0x3601b",
      "effectiveGasPrice": "0x5b8d80",
      "blobGasUsed": "0x41c48",
      "from": "0xa121e1ef31bbf0826aa67dc01e7977e80af58d73",
      "to": "0xba5ed099633d3b313e4d5f7bdc1305d3c28ba5ed",
      "contractAddress": null,
      "daFootprintGasScalar": "0x1be",
      "l1BaseFeeScalar": "0x44d",
      "l1BlobBaseFee": "0x3ea32d3",
      "l1BlobBaseFeeScalar": "0xa118b",
      "l1Fee": "0x8a84dd77e",
      "l1GasPrice": "0x3da5e760",
      "l1GasUsed": "0x25c0"
    },
    {
      "status": "0x1",
      "cumulativeGasUsed": "0x3f139d",
      "logs": [
        {
          "address": "0xe92244e3368561faf21648146511dede3a475eb5",
          "topics": [
            "0xdc86ea80c17dba36e8aac1a8a9461dcc3967506848bd50e2e48b90507867abb9",
            "0x000000000000000000000000036cbd53842c5426634e7929541ec2318f3dcf7e"
          ],
          "data": "0x0000000000000000000000000000000000000000000000000000000000000001",
          "blockHash": "0x9f2970e4bfb875736f0fa2205425cd8d0092ceab0503f590a80f2a8684405aba",
          "blockNumber": "0x29e4216",
          "blockTimestamp": "0x6a4fe30c",
          "transactionHash": "0xd682837c14808784fa4747b48de539c9db5b5dbc7bf5c397fc2dd0a9c338765c",
          "transactionIndex": "0xe",
          "logIndex": "0x54",
          "removed": false
        }
      ],
      "logsBloom": "0x00000000000000000000000000000000000000000000000000000000000000000000000000000000000000000000000000000000000000000010000000000000000000000000000001000000000000000000000000000000000000000000000000000000000000000000000000000000000000000000000000000000000000000000000040000000000000000000000000000000000000000000000000000000000000000000100020000000000000000000000000000000100000000000000000000000000000000004000000000000000000000000000000000000000000000000000000000000000000000040000000000000000000000000000000000020",
      "type": "0x2",
      "transactionHash": "0xd682837c14808784fa4747b48de539c9db5b5dbc7bf5c397fc2dd0a9c338765c",
      "transactionIndex": "0xe",
      "blockHash": "0x9f2970e4bfb875736f0fa2205425cd8d0092ceab0503f590a80f2a8684405aba",
      "blockNumber": "0x29e4216",
      "gasUsed": "0x7f58",
      "effectiveGasPrice": "0x5b8d80",
      "blobGasUsed": "0xae38",
      "from": "0xa121e1ef31bbf0826aa67dc01e7977e80af58d73",
      "to": "0xe92244e3368561faf21648146511dede3a475eb5",
      "contractAddress": null,
      "daFootprintGasScalar": "0x1be",
      "l1BaseFeeScalar": "0x44d",
      "l1BlobBaseFee": "0x3ea32d3",
      "l1BlobBaseFeeScalar": "0xa118b",
      "l1Fee": "0x16eeb9275",
      "l1GasPrice": "0x3da5e760",
      "l1GasUsed": "0x640"
    },
    {
      "status": "0x1",
      "cumulativeGasUsed": "0x3fa63a",
      "logs": [
        {
          "address": "0xe92244e3368561faf21648146511dede3a475eb5",
          "topics": [
            "0xd2d8394cf7549a5ddbc2ba3dd7b2de8d53c891472d1f2907008ed6a10045fdae",
            "0x000000000000000000000000036cbd53842c5426634e7929541ec2318f3dcf7e"
          ],
          "data": "0x000000000000000000000000d30e2101a97dcbaebcbc04f14c3f624e67a35165",
          "blockHash": "0x9f2970e4bfb875736f0fa2205425cd8d0092ceab0503f590a80f2a8684405aba",
          "blockNumber": "0x29e4216",
          "blockTimestamp": "0x6a4fe30c",
          "transactionHash": "0x7a83daf66f048a349b7d8d01eb3672f34c4dc9d6eb2f23bba83f3a76017ee40f",
          "transactionIndex": "0xf",
          "logIndex": "0x55",
          "removed": false
        },
        {
          "address": "0xe92244e3368561faf21648146511dede3a475eb5",
          "topics": [
            "0xb7f3f4e76113c4e03f2a107419d0adcf3a95764e98cfe5387cd35e448971649a",
            "0x000000000000000000000000036cbd53842c5426634e7929541ec2318f3dcf7e"
          ],
          "data": "0x0000000000000000000000000000000000000000000000000000000000015f90",
          "blockHash": "0x9f2970e4bfb875736f0fa2205425cd8d0092ceab0503f590a80f2a8684405aba",
          "blockNumber": "0x29e4216",
          "blockTimestamp": "0x6a4fe30c",
          "transactionHash": "0x7a83daf66f048a349b7d8d01eb3672f34c4dc9d6eb2f23bba83f3a76017ee40f",
          "transactionIndex": "0xf",
          "logIndex": "0x56",
          "removed": false
        }
      ],
      "logsBloom": "0x00000000000000000000000000000000000000000080000000000000000000000000000000000008000000000000000000000000000000000010000000000000100000000000000000000000000000000000000000000000000000000000000000000000000000000000000000000000000000000000000000100000000000000000000040000000000000000000000000000000000000000000000000000000000000000000000020000000000000000000000000000000100000000000000000000000000000000000000000000000000010000000000000000000000000000000000000000000000400000040000000000000000000000000000000000020",
      "type": "0x2",
      "transactionHash": "0x7a83daf66f048a349b7d8d01eb3672f34c4dc9d6eb2f23bba83f3a76017ee40f",
      "transactionIndex": "0xf",
      "blockHash": "0x9f2970e4bfb875736f0fa2205425cd8d0092ceab0503f590a80f2a8684405aba",
      "blockNumber": "0x29e4216",
      "gasUsed": "0x929d",
      "effectiveGasPrice": "0x5b8d80",
      "blobGasUsed": "0xb8ac",
      "from": "0xa121e1ef31bbf0826aa67dc01e7977e80af58d73",
      "to": "0xe92244e3368561faf21648146511dede3a475eb5",
      "contractAddress": null,
      "daFootprintGasScalar": "0x1be",
      "l1BaseFeeScalar": "0x44d",
      "l1BlobBaseFee": "0x3ea32d3",
      "l1BlobBaseFeeScalar": "0xa118b",
      "l1Fee": "0x18613f827",
      "l1GasPrice": "0x3da5e760",
      "l1GasUsed": "0x6a4"
    }
  ],
  "libraries": [],
  "pending": [],
  "returns": {
    "router": {
      "internal_type": "contract Access0x1Router",
      "value": "0xe92244e3368561faf21648146511DeDE3a475EB5"
    },
    "lanes": {
      "internal_type": "contract PaymentLanes",
      "value": "0x49bb2c3d3aAE0ad260F3Ce76FA78e0323Aae2510"
    },
    "helperConfig": {
      "internal_type": "contract HelperConfig",
      "value": "0xC7f2Cf4845C6db0e1a1e91ED41Bcd0FcC1b0E141"
    }
  },
  "timestamp": 1783620402096,
  "chain": 84532,
  "commit": "6487c14"
}